{
	"_format": "hh-sol-artifact-1",
	"contractName": "MockErc20Token",
	"sourceName": "contracts/MockErc20Token.sol",
	"abi": [
		{
			"inputs": [],
			"stateMutability": "nonpayable",
			"type": "constructor"
		},
		{
			"inputs": [
				{
					"internalType": "address",
					"name": "spender",
					"type": "address"
				},
				{
					"internalType": "uint256",
					"name": "allowance",
					"type": "uint256"
				},
				{
					"internalType": "uint256",
					"name": "needed",
					"type": "uint256"
				}
			],
			"name": "ERC20InsufficientAllowance",
			"type": "error"
		},
		{
			"inputs": [
				{
					"internalType": "address",
					"name": "sender",
					"type": "address"
				},
				{
					"internalType": "uint256",
					"name": "balance",
					"type": "uint256"
				},
				{
					"internalType": "uint256",
					"name": "needed",
					"type": "uint256"
				}
			],
			"name": "ERC20InsufficientBalance",
			"type": "error"
		},
		{
			"inputs": [
				{
					"internalType": "address",
					"name": "approver",
					"type": "address"
				}
			],
			"name": "ERC20InvalidApprover",
			"type": "error"
		},
		{
			"inputs": [
				{
					"internalType": "address",
					"name": "receiver",
					"type": "address"
				}
			],
			"name": "ERC20InvalidReceiver",
			"type": "error"
		},
		{
			"inputs": [
				{
					"internalType": "address",
					"name": "sender",
					"type": "address"
				}
			],
			"name": "ERC20InvalidSender",
			"type": "error"
		},
		{
			"inputs": [
				{
					"internalType": "address",
					"name": "spender",
					"type": "address"
				}
			],
			"name": "ERC20InvalidSpender",
			"type": "error"
		},
		{
			"inputs": [
				{
					"internalType": "address",
					"name": "owner",
					"type": "address"
				}
			],
			"name": "OwnableInvalidOwner",
			"type": "error"
		},
		{
			"inputs": [
				{
					"internalType": "address",
					"name": "account",
					"type": "address"
				}
			],
			"name": "OwnableUnauthorizedAccount",
			"type": "error"
		},
		{
			"anonymous": false,
			"inputs": [
				{
					"indexed": true,
					"internalType": "address",
					"name": "owner",
					"type": "address"
				},
				{
					"indexed": true,
					"internalType": "address",
					"name": "spender",
					"type": "address"
				},
				{
					"indexed": false,
					"internalType": "uint256",
					"name": "value",
					"type": "uint256"
				}
			],
			"name": "Approval",
			"type": "event"
		},
		{
			"anonymous": false,
			"inputs": [
				{
					"indexed": true,
					"internalType": "address",
					"name": "previousOwner",
					"type": "address"
				},
				{
					"indexed": true,
					"internalType": "address",
					"name": "newOwner",
					"type": "address"
				}
			],
			"name": "OwnershipTransferred",
			"type": "event"
		},
		{
			"anonymous": false,
			"inputs": [
				{
					"indexed": true,
					"internalType": "address",
					"name": "from",
					"type": "address"
				},
				{
					"indexed": true,
					"internalType": "address",
					"name": "to",
					"type": "address"
				},
				{
					"indexed": false,
					"internalType": "uint256",
					"name": "value",
					"type": "uint256"
				}
			],
			"name": "Transfer",
			"type": "event"
		},
		{
			"inputs": [],
			"name": "FAUCET_AMOUNT",
			"outputs": [
				{
					"internalType": "uint256",
					"name": "",
					"type": "uint256"
				}
			],
			"stateMutability": "view",
			"type": "function"
		},
		{
			"inputs": [],
			"name": "FAUCET_COOL_DOWN",
			"outputs": [
				{
					"internalType": "uint256",
					"name": "",
					"type": "uint256"
				}
			],
			"stateMutability": "view",
			"type": "function"
		},
		{
			"inputs": [
				{
					"internalType": "address",
					"name": "owner",
					"type": "address"
				},
				{
					"internalType": "address",
					"name": "spender",
					"type": "address"
				}
			],
			"name": "allowance",
			"outputs": [
				{
					"internalType": "uint256",
					"name": "",
					"type": "uint256"
				}
			],
			"stateMutability": "view",
			"type": "function"
		},
		{
			"inputs": [
				{
					"internalType": "address",
					"name": "spender",
					"type": "address"
				},
				{
					"internalType": "uint256",
					"name": "value",
					"type": "uint256"
				}
			],
			"name": "approve",
			"outputs": [
				{
					"internalType": "bool",
					"name": "",
					"type": "bool"
				}
			],
			"stateMutability": "nonpayable",
			"type": "function"
		},
		{
			"inputs": [
				{
					"internalType": "address",
					"name": "account",
					"type": "address"
				}
			],
			"name": "balanceOf",
			"outputs": [
				{
					"internalType": "uint256",
					"name": "",
					"type": "uint256"
				}
			],
			"stateMutability": "view",
			"type": "function"
		},
		{
			"inputs": [],
			"name": "decimals",
			"outputs": [
				{
					"internalType": "uint8",
					"name": "",
					"type": "uint8"
				}
			],
			"stateMutability": "view",
			"type": "function"
		},
		{
			"inputs": [],
			"name": "faucet",
			"outputs": [],
			"stateMutability": "nonpayable",
			"type": "function"
		},
		{
			"inputs": [
				{
					"internalType": "address",
					"name": "",
					"type": "address"
				}
			],
			"name": "lastFaucetTime",
			"outputs": [
				{
					"internalType": "uint256",
					"name": "",
					"type": "uint256"
				}
			],
			"stateMutability": "view",
			"type": "function"
		},
		{
			"inputs": [
				{
					"internalType": "address",
					"name": "to",
					"type": "address"
				},
				{
					"internalType": "uint256",
					"name": "amount",
					"type": "uint256"
				}
			],
			"name": "mint",
			"outputs": [],
			"stateMutability": "nonpayable",
			"type": "function"
		},
		{
			"inputs": [],
			"name": "name",
			"outputs": [
				{
					"internalType": "string",
					"name": "",
					"type": "string"
				}
			],
			"stateMutability": "view",
			"type": "function"
		},
		{
			"inputs": [],
			"name": "owner",
			"outputs": [
				{
					"internalType": "address",
					"name": "",
					"type": "address"
				}
			],
			"stateMutability": "view",
			"type": "function"
		},
		{
			"inputs": [],
			"name": "renounceOwnership",
			"outputs": [],
			"stateMutability": "nonpayable",
			"type": "function"
		},
		{
			"inputs": [],
			"name": "symbol",
			"outputs": [
				{
					"internalType": "string",
					"name": "",
					"type": "string"
				}
			],
			"stateMutability": "view",
			"type": "function"
		},
		{
			"inputs": [],
			"name": "totalSupply",
			"outputs": [
				{
					"internalType": "uint256",
					"name": "",
					"type": "uint256"
				}
			],
			"stateMutability": "view",
			"type": "function"
		},
		{
			"inputs": [
				{
					"internalType": "address",
					"name": "to",
					"type": "address"
				},
				{
					"internalType": "uint256",
					"name": "value",
					"type": "uint256"
				}
			],
			"name": "transfer",
			"outputs": [
				{
					"internalType": "bool",
					"name": "",
					"type": "bool"
				}
			],
			"stateMutability": "nonpayable",
			"type": "function"
		},
		{
			"inputs": [
				{
					"internalType": "address",
					"name": "from",
					"type": "address"
				},
				{
					"internalType": "address",
					"name": "to",
					"type": "address"
				},
				{
					"internalType": "uint256",
					"name": "value",
					"type": "uint256"
				}
			],
			"name": "transferFrom",
			"outputs": [
				{
					"internalType": "bool",
					"name": "",
					"type": "bool"
				}
			],
			"stateMutability": "nonpayable",
			"type": "function"
		},
		{
			"inputs": [
				{
					"internalType": "address",
					"name": "newOwner",
					"type": "address"
				}
			],
			"name": "transferOwnership",
			"outputs": [],
			"stateMutability": "nonpayable",
			"type": "function"
		}
	],
	"bytecode": "0x608060405234801561001057600080fd5b503360405180604001604052806008815260200167135bd8dac81554d160c21b81525060405180604001604052806004815260200163135554d160e21b815250816003908161005f9190610311565b50600461006c8282610311565b5050506001600160a01b03811661009e57604051631e4fbdf760e01b8152600060048201526024015b60405180910390fd5b6100a7816100bc565b506100b73364e8d4a5100061010e565b6103f6565b600580546001600160a01b038381166001600160a01b0319831681179093556040519116919082907f8be0079c531659141344cd1fd0a4f28419497f9722a3daafe3b4186f6b6457e090600090a35050565b6001600160a01b0382166101385760405163ec442f0560e01b815260006004820152602401610095565b61014460008383610148565b5050565b6001600160a01b03831661017357806002600082825461016891906103cf565b909155506101e59050565b6001600160a01b038316600090815260208190526040902054818110156101c65760405163391434e360e21b81526001600160a01b03851660048201526024810182905260448101839052606401610095565b6001600160a01b03841660009081526020819052604090209082900390555b6001600160a01b03821661020157600280548290039055610220565b6001600160a01b03821660009081526020819052604090208054820190555b816001600160a01b0316836001600160a01b03167fddf252ad1be2c89b69c2b068fc378daa952ba7f163c4a11628f55a4df523b3ef8360405161026591815260200190565b60405180910390a3505050565b634e487b7160e01b600052604160045260246000fd5b600181811c9082168061029c57607f821691505b6020821081036102bc57634e487b7160e01b600052602260045260246000fd5b50919050565b601f82111561030c57806000526020600020601f840160051c810160208510156102e95750805b601f840160051c820191505b8181101561030957600081556001016102f5565b50505b505050565b81516001600160401b0381111561032a5761032a610272565b61033e816103388454610288565b846102c2565b6020601f821160018114610372576000831561035a5750848201515b600019600385901b1c1916600184901b178455610309565b600084815260208120601f198516915b828110156103a25787850151825560209485019460019092019101610382565b50848210156103c05786840151600019600387901b60f8161c191681555b50505050600190811b01905550565b808201808211156103f057634e487b7160e01b600052601160045260246000fd5b92915050565b6109e0806104056000396000f3fe608060405234801561001057600080fd5b506004361061010b5760003560e01c8063715018a6116100a257806395d89b411161007157806395d89b411461021b578063a9059cbb14610223578063dd62ed3e14610236578063de5f72fd1461026f578063f2fde38b1461027757600080fd5b8063715018a6146101cd57806376697640146101d55780637bc1f6cc146101e05780638da5cb5b1461020057600080fd5b8063313ce567116100de578063313ce5671461017657806340c10f19146101855780635f1d2d521461019a57806370a08231146101a457600080fd5b806306fdde0314610110578063095ea7b31461012e57806318160ddd1461015157806323b872dd14610163575b600080fd5b61011861028a565b6040516101259190610829565b60405180910390f35b61014161013c366004610893565b61031c565b6040519015158152602001610125565b6002545b604051908152602001610125565b6101416101713660046108bd565b610336565b60405160068152602001610125565b610198610193366004610893565b61035a565b005b6101556201518081565b6101556101b23660046108fa565b6001600160a01b031660009081526020819052604090205490565b610198610370565b610155631dcd650081565b6101556101ee3660046108fa565b60066020526000908152604090205481565b6005546040516001600160a01b039091168152602001610125565b610118610384565b610141610231366004610893565b610393565b61015561024436600461091c565b6001600160a01b03918216600090815260016020908152604080832093909416825291909152205490565b6101986103a1565b6101986102853660046108fa565b610448565b6060600380546102999061094f565b80601f01602080910402602001604051908101604052809291908181526020018280546102c59061094f565b80156103125780601f106102e757610100808354040283529160200191610312565b820191906000526020600020905b8154815290600101906020018083116102f557829003601f168201915b5050505050905090565b60003361032a818585610486565b60019150505b92915050565b600033610344858285610498565b61034f858585610516565b506001949350505050565b610362610575565b61036c82826105a2565b5050565b610378610575565b61038260006105d8565b565b6060600480546102999061094f565b60003361032a818585610516565b336000908152600660205260409020546103bf906201518090610989565b4210156104285760405162461bcd60e51b815260206004820152602c60248201527f506c65617365207761697420323420686f757273206265747765656e2066617560448201526b63657420726571756573747360a01b60648201526084015b60405180910390fd5b33600081815260066020526040902042905561038290631dcd65006105a2565b610450610575565b6001600160a01b03811661047a57604051631e4fbdf760e01b81526000600482015260240161041f565b610483816105d8565b50565b610493838383600161062a565b505050565b6001600160a01b038381166000908152600160209081526040808320938616835292905220546000198114610510578181101561050157604051637dc7a0d960e11b81526001600160a01b0384166004820152602481018290526044810183905260640161041f565b6105108484848403600061062a565b50505050565b6001600160a01b03831661054057604051634b637e8f60e11b81526000600482015260240161041f565b6001600160a01b03821661056a5760405163ec442f0560e01b81526000600482015260240161041f565b6104938383836106ff565b6005546001600160a01b031633146103825760405163118cdaa760e01b815233600482015260240161041f565b6001600160a01b0382166105cc5760405163ec442f0560e01b81526000600482015260240161041f565b61036c600083836106ff565b600580546001600160a01b038381166001600160a01b0319831681179093556040519116919082907f8be0079c531659141344cd1fd0a4f28419497f9722a3daafe3b4186f6b6457e090600090a35050565b6001600160a01b0384166106545760405163e602df0560e01b81526000600482015260240161041f565b6001600160a01b03831661067e57604051634a1406b160e11b81526000600482015260240161041f565b6001600160a01b038085166000908152600160209081526040808320938716835292905220829055801561051057826001600160a01b0316846001600160a01b03167f8c5be1e5ebec7d5bd14f71427d1e84f3dd0314c0f7b2291e5b200ac8c7c3b925846040516106f191815260200190565b60405180910390a350505050565b6001600160a01b03831661072a57806002600082825461071f9190610989565b9091555061079c9050565b6001600160a01b0383166000908152602081905260409020548181101561077d5760405163391434e360e21b81526001600160a01b0385166004820152602481018290526044810183905260640161041f565b6001600160a01b03841660009081526020819052604090209082900390555b6001600160a01b0382166107b8576002805482900390556107d7565b6001600160a01b03821660009081526020819052604090208054820190555b816001600160a01b0316836001600160a01b03167fddf252ad1be2c89b69c2b068fc378daa952ba7f163c4a11628f55a4df523b3ef8360405161081c91815260200190565b60405180910390a3505050565b602081526000825180602084015260005b81811015610857576020818601810151604086840101520161083a565b506000604082850101526040601f19601f83011684010191505092915050565b80356001600160a01b038116811461088e57600080fd5b919050565b600080604083850312156108a657600080fd5b6108af83610877565b946020939093013593505050565b6000806000606084860312156108d257600080fd5b6108db84610877565b92506108e960208501610877565b929592945050506040919091013590565b60006020828403121561090c57600080fd5b61091582610877565b9392505050565b6000806040838503121561092f57600080fd5b61093883610877565b915061094660208401610877565b90509250929050565b600181811c9082168061096357607f821691505b60208210810361098357634e487b7160e01b600052602260045260246000fd5b50919050565b8082018082111561033057634e487b7160e01b600052601160045260246000fdfea26469706673582212202d1e0a9c523b376323d901f8087e195c1b6bdb351a995b363277638a40edbf1064736f6c634300081b0033",
	"linkReferences": {},
	"deployedLinkReferences": {}
}