{
  "_format": "hh-sol-artifact-1",
  "contractName": "RaffleFactory",
  "sourceName": "contracts/RaffleFactory.sol",
  "abi": [
    {
      "inputs": [],
      "stateMutability": "nonpayable",
      "type": "constructor"
    },
    {
      "inputs": [
        {
          "internalType": "address",
          "name": "target",
          "type": "address"
        }
      ],
      "name": "AddressEmptyCode",
      "type": "error"
    },
    {
      "inputs": [],
      "name": "ContractNotDeployed",
      "type": "error"
    },
    {
      "inputs": [],
      "name": "DurationTooLong",
      "type": "error"
    },
    {
      "inputs": [],
      "name": "DurationTooShort",
      "type": "error"
    },
    {
      "inputs": [
        {
          "internalType": "address",
          "name": "implementation",
          "type": "address"
        }
      ],
      "name": "ERC1967InvalidImplementation",
      "type": "error"
    },
    {
      "inputs": [],
      "name": "ERC1967NonPayable",
      "type": "error"
    },
    {
      "inputs": [],
      "name": "EnforcedPause",
      "type": "error"
    },
    {
      "inputs": [],
      "name": "ExpectedPause",
      "type": "error"
    },
    {
      "inputs": [],
      "name": "FailedCall",
      "type": "error"
    },
    {
      "inputs": [],
      "name": "FailedDeployment",
      "type": "error"
    },
    {
      "inputs": [
        {
          "internalType": "uint256",
          "name": "balance",
          "type": "uint256"
        },
        {
          "internalType": "uint256",
          "name": "needed",
          "type": "uint256"
        }
      ],
      "name": "InsufficientBalance",
      "type": "error"
    },
    {
      "inputs": [],
      "name": "InvalidImplementationAddress",
      "type": "error"
    },
    {
      "inputs": [],
      "name": "InvalidInitialization",
      "type": "error"
    },
    {
      "inputs": [],
      "name": "InvalidNotificationsAddress",
      "type": "error"
    },
    {
      "inputs": [],
      "name": "InvalidPrizePool",
      "type": "error"
    },
    {
      "inputs": [],
      "name": "InvalidTicketPrice",
      "type": "error"
    },
    {
      "inputs": [],
      "name": "InvalidTokenAddress",
      "type": "error"
    },
    {
      "inputs": [],
      "name": "InvalidVRFAddress",
      "type": "error"
    },
    {
      "inputs": [],
      "name": "NotInitializing",
      "type": "error"
    },
    {
      "inputs": [
        {
          "internalType": "address",
          "name": "owner",
          "type": "address"
        }
      ],
      "name": "OwnableInvalidOwner",
      "type": "error"
    },
    {
      "inputs": [
        {
          "internalType": "address",
          "name": "account",
          "type": "address"
        }
      ],
      "name": "OwnableUnauthorizedAccount",
      "type": "error"
    },
    {
      "inputs": [],
      "name": "UUPSUnauthorizedCallContext",
      "type": "error"
    },
    {
      "inputs": [
        {
          "internalType": "bytes32",
          "name": "slot",
          "type": "bytes32"
        }
      ],
      "name": "UUPSUnsupportedProxiableUUID",
      "type": "error"
    },
    {
      "anonymous": false,
      "inputs": [
        {
          "indexed": false,
          "internalType": "uint64",
          "name": "version",
          "type": "uint64"
        }
      ],
      "name": "Initialized",
      "type": "event"
    },
    {
      "anonymous": false,
      "inputs": [
        {
          "indexed": false,
          "internalType": "address",
          "name": "newNotifications",
          "type": "address"
        }
      ],
      "name": "NotificationsUpdated",
      "type": "event"
    },
    {
      "anonymous": false,
      "inputs": [
        {
          "indexed": true,
          "internalType": "address",
          "name": "previousOwner",
          "type": "address"
        },
        {
          "indexed": true,
          "internalType": "address",
          "name": "newOwner",
          "type": "address"
        }
      ],
      "name": "OwnershipTransferred",
      "type": "event"
    },
    {
      "anonymous": false,
      "inputs": [
        {
          "indexed": false,
          "internalType": "address",
          "name": "account",
          "type": "address"
        }
      ],
      "name": "Paused",
      "type": "event"
    },
    {
      "anonymous": false,
      "inputs": [
        {
          "indexed": true,
          "internalType": "address",
          "name": "raffleAddress",
          "type": "address"
        },
        {
          "indexed": true,
          "internalType": "address",
          "name": "creator",
          "type": "address"
        },
        {
          "indexed": true,
          "internalType": "uint256",
          "name": "raffleId",
          "type": "uint256"
        },
        {
          "indexed": false,
          "internalType": "address",
          "name": "token",
          "type": "address"
        },
        {
          "indexed": false,
          "internalType": "uint256",
          "name": "ticketPrice",
          "type": "uint256"
        },
        {
          "indexed": false,
          "internalType": "uint256",
          "name": "duration",
          "type": "uint256"
        },
        {
          "indexed": false,
          "internalType": "uint256",
          "name": "guaranteedPrizePool",
          "type": "uint256"
        },
        {
          "indexed": false,
          "internalType": "uint256",
          "name": "timestamp",
          "type": "uint256"
        }
      ],
      "name": "RaffleDeployed",
      "type": "event"
    },
    {
      "anonymous": false,
      "inputs": [
        {
          "indexed": false,
          "internalType": "address",
          "name": "newImplementation",
          "type": "address"
        }
      ],
      "name": "RaffleImplementationUpdated",
      "type": "event"
    },
    {
      "anonymous": false,
      "inputs": [
        {
          "indexed": false,
          "internalType": "address",
          "name": "account",
          "type": "address"
        }
      ],
      "name": "Unpaused",
      "type": "event"
    },
    {
      "anonymous": false,
      "inputs": [
        {
          "indexed": true,
          "internalType": "address",
          "name": "implementation",
          "type": "address"
        }
      ],
      "name": "Upgraded",
      "type": "event"
    },
    {
      "inputs": [],
      "name": "UPGRADE_INTERFACE_VERSION",
      "outputs": [
        {
          "internalType": "string",
          "name": "",
          "type": "string"
        }
      ],
      "stateMutability": "view",
      "type": "function"
    },
    {
      "inputs": [
        {
          "internalType": "address",
          "name": "tokenAddress",
          "type": "address"
        },
        {
          "internalType": "uint256",
          "name": "ticketPrice",
          "type": "uint256"
        },
        {
          "internalType": "uint256",
          "name": "duration",
          "type": "uint256"
        },
        {
          "internalType": "uint256",
          "name": "guaranteedPrizePool",
          "type": "uint256"
        }
      ],
      "name": "deployRaffle",
      "outputs": [
        {
          "internalType": "address",
          "name": "",
          "type": "address"
        }
      ],
      "stateMutability": "nonpayable",
      "type": "function"
    },
    {
      "inputs": [],
      "name": "getAllRaffles",
      "outputs": [
        {
          "internalType": "address[]",
          "name": "",
          "type": "address[]"
        }
      ],
      "stateMutability": "view",
      "type": "function"
    },
    {
      "inputs": [],
      "name": "getRaffleCount",
      "outputs": [
        {
          "internalType": "uint256",
          "name": "",
          "type": "uint256"
        }
      ],
      "stateMutability": "view",
      "type": "function"
    },
    {
      "inputs": [
        {
          "internalType": "address",
          "name": "_notifications",
          "type": "address"
        },
        {
          "internalType": "address",
          "name": "_raffleImplementation",
          "type": "address"
        },
        {
          "internalType": "address",
          "name": "_vrf",
          "type": "address"
        }
      ],
      "name": "initialize",
      "outputs": [],
      "stateMutability": "nonpayable",
      "type": "function"
    },
    {
      "inputs": [
        {
          "internalType": "address",
          "name": "",
          "type": "address"
        }
      ],
      "name": "isValidRaffle",
      "outputs": [
        {
          "internalType": "bool",
          "name": "",
          "type": "bool"
        }
      ],
      "stateMutability": "view",
      "type": "function"
    },
    {
      "inputs": [],
      "name": "nextRaffleId",
      "outputs": [
        {
          "internalType": "uint256",
          "name": "",
          "type": "uint256"
        }
      ],
      "stateMutability": "view",
      "type": "function"
    },
    {
      "inputs": [],
      "name": "notifications",
      "outputs": [
        {
          "internalType": "contract RaffleNotifications",
          "name": "",
          "type": "address"
        }
      ],
      "stateMutability": "view",
      "type": "function"
    },
    {
      "inputs": [],
      "name": "owner",
      "outputs": [
        {
          "internalType": "address",
          "name": "",
          "type": "address"
        }
      ],
      "stateMutability": "view",
      "type": "function"
    },
    {
      "inputs": [],
      "name": "pause",
      "outputs": [],
      "stateMutability": "nonpayable",
      "type": "function"
    },
    {
      "inputs": [],
      "name": "paused",
      "outputs": [
        {
          "internalType": "bool",
          "name": "",
          "type": "bool"
        }
      ],
      "stateMutability": "view",
      "type": "function"
    },
    {
      "inputs": [
        {
          "internalType": "address",
          "name": "creator",
          "type": "address"
        }
      ],
      "name": "predictNextRaffleAddress",
      "outputs": [
        {
          "internalType": "address",
          "name": "",
          "type": "address"
        }
      ],
      "stateMutability": "view",
      "type": "function"
    },
    {
      "inputs": [],
      "name": "proxiableUUID",
      "outputs": [
        {
          "internalType": "bytes32",
          "name": "",
          "type": "bytes32"
        }
      ],
      "stateMutability": "view",
      "type": "function"
    },
    {
      "inputs": [],
      "name": "raffleImplementation",
      "outputs": [
        {
          "internalType": "address",
          "name": "",
          "type": "address"
        }
      ],
      "stateMutability": "view",
      "type": "function"
    },
    {
      "inputs": [],
      "name": "renounceOwnership",
      "outputs": [],
      "stateMutability": "nonpayable",
      "type": "function"
    },
    {
      "inputs": [
        {
          "internalType": "address",
          "name": "newOwner",
          "type": "address"
        }
      ],
      "name": "transferOwnership",
      "outputs": [],
      "stateMutability": "nonpayable",
      "type": "function"
    },
    {
      "inputs": [],
      "name": "unpause",
      "outputs": [],
      "stateMutability": "nonpayable",
      "type": "function"
    },
    {
      "inputs": [
        {
          "internalType": "address",
          "name": "_notifications",
          "type": "address"
        }
      ],
      "name": "updateNotifications",
      "outputs": [],
      "stateMutability": "nonpayable",
      "type": "function"
    },
    {
      "inputs": [
        {
          "internalType": "address",
          "name": "_newImplementation",
          "type": "address"
        }
      ],
      "name": "updateRaffleImplementation",
      "outputs": [],
      "stateMutability": "nonpayable",
      "type": "function"
    },
    {
      "inputs": [
        {
          "internalType": "address",
          "name": "_vrf",
          "type": "address"
        }
      ],
      "name": "updateVRF",
      "outputs": [],
      "stateMutability": "nonpayable",
      "type": "function"
    },
    {
      "inputs": [
        {
          "internalType": "address",
          "name": "newImplementation",
          "type": "address"
        },
        {
          "internalType": "bytes",
          "name": "data",
          "type": "bytes"
        }
      ],
      "name": "upgradeToAndCall",
      "outputs": [],
      "stateMutability": "payable",
      "type": "function"
    },
    {
      "inputs": [],
      "name": "version",
      "outputs": [
        {
          "internalType": "string",
          "name": "",
          "type": "string"
        }
      ],
      "stateMutability": "view",
      "type": "function"
    },
    {
      "inputs": [],
      "name": "vrf",
      "outputs": [
        {
          "internalType": "address",
          "name": "",
          "type": "address"
        }
      ],
      "stateMutability": "view",
      "type": "function"
    }
  ],
  "bytecode": "0x60a06040523060805234801561001457600080fd5b5061001d610022565b6100d4565b7ff0c57e16840df040f15088dc2f81fe391c3923bec73e23a9662efc9c229c6a00805468010000000000000000900460ff16156100725760405163f92ee8a960e01b815260040160405180910390fd5b80546001600160401b03908116146100d15780546001600160401b0319166001600160401b0390811782556040519081527fc7f505b2f371ae2175ee4913f4499e1f2633a7b5936321eed1cdaeb6115181d29060200160405180910390a15b50565b6080516118776100fd60003960008181610e8901528181610eb20152610ff801526118776000f3fe60806040526004361061013f5760003560e01c80638456cb59116100b6578063b1986acc1161006f578063b1986acc14610396578063c0c53b8b146103b6578063d76001f9146103d6578063ee565363146103f6578063f2fde38b146104be578063f941cdb0146104de57600080fd5b80638456cb59146102bb5780638458e3e4146102d0578063888f232c146102e65780638da5cb5b14610306578063933eea6b14610343578063ad3cb1cc1461036557600080fd5b80634f1ef286116101085780634f1ef286146101f757806352d1902d1461020a57806354fd4d501461021f57806359838feb146102415780635c975abb14610281578063715018a6146102a657600080fd5b80620df2a8146101445780630c949043146101815780631d8c6086146101a15780633d1da5ed146101c05780633f4ba83a146101e0575b600080fd5b34801561015057600080fd5b5061016461015f36600461144a565b6104fe565b6040516001600160a01b0390911681526020015b60405180910390f35b34801561018d57600080fd5b50600654610164906001600160a01b031681565b3480156101ad57600080fd5b506003545b604051908152602001610178565b3480156101cc57600080fd5b50600154610164906001600160a01b031681565b3480156101ec57600080fd5b506101f5610836565b005b6101f5610205366004611499565b610848565b34801561021657600080fd5b506101b2610867565b34801561022b57600080fd5b50610234610884565b6040516101789190611587565b34801561024d57600080fd5b5061027161025c3660046115ba565b60026020526000908152604090205460ff1681565b6040519015158152602001610178565b34801561028d57600080fd5b506000805160206118228339815191525460ff16610271565b3480156102b257600080fd5b506101f5610912565b3480156102c757600080fd5b506101f5610924565b3480156102dc57600080fd5b506101b260045481565b3480156102f257600080fd5b50600054610164906001600160a01b031681565b34801561031257600080fd5b507f9016d09d72d40fdae2fd8ceac6b6234c7706214fd39c1cd1e609a0528c199300546001600160a01b0316610164565b34801561034f57600080fd5b50610358610934565b60405161017891906115d5565b34801561037157600080fd5b50610234604051806040016040528060058152602001640352e302e360dc1b81525081565b3480156103a257600080fd5b506101f56103b13660046115ba565b610996565b3480156103c257600080fd5b506101f56103d1366004611621565b6109e7565b3480156103e257600080fd5b506101f56103f13660046115ba565b610be7565b34801561040257600080fd5b506101646104113660046115ba565b60045460408051606093841b6bffffffffffffffffffffffff1916602080830191909152603480830194909452825180830390940184526054820192839052835193019290922060015430608c8501526f5af43d82803e903d91602b57fd5bf3ff60788501526001600160a01b039081166068850152733d602d80600a3d3981f3363d3d373d3d3d363d7390925260ac83015260379282019290922060cc82015260556097909101201690565b3480156104ca57600080fd5b506101f56104d93660046115ba565b610c96565b3480156104ea57600080fd5b506101f56104f93660046115ba565b610cd9565b6000610508610d81565b6001600160a01b03851661052f57604051630f58058360e11b815260040160405180910390fd5b83600003610550576040516306f6808b60e01b815260040160405180910390fd5b603c831015610572576040516325c3636760e01b815260040160405180910390fd5b62278d0083111561059657604051634a94fa8360e11b815260040160405180910390fd5b816000036105b75760405163db68c2d160e01b815260040160405180910390fd5b6004546040516bffffffffffffffffffffffff193360601b1660208201526034810182905260009060540160408051601f198184030181529190528051602090910120600154909150600090610616906001600160a01b031683610db2565b90506001600160a01b03811661063f5760405163c02d3ee360e01b815260040160405180910390fd5b6000546006546040516349bc779b60e01b81526001600160a01b038b81166004830152602482018b9052604482018a905260648201899052928316608482015290821660a48201523360c4820152908216906349bc779b9060e401600060405180830381600087803b1580156106b457600080fd5b505af11580156106c8573d6000803e3d6000fd5b5050506001600160a01b0382166000818152600260205260408120805460ff1916600190811790915560038054808301825592527fc2575a0e9e593c00f959f8c92f12db2869c3395a3b0502d05e2516446f71f85b90910180546001600160a01b0319169092179091556004549150610742908290611664565b600490815560005460405163c2d370ff60e01b81526001600160a01b03858116938201939093523360248201528b83166044820152606481018b9052608481018a905260a4810189905291169063c2d370ff9060c401600060405180830381600087803b1580156107b257600080fd5b505af11580156107c6573d6000803e3d6000fd5b5050604080516001600160a01b038d81168252602082018d90529181018b9052606081018a9052426080820152849350339250908516907f096425db8f969aca21fe6d9fd3b393ae28b9305ee10c7ac0ccdc4f9f2d93b06c9060a00160405180910390a450979650505050505050565b61083e610dc9565b610846610e24565b565b610850610e7e565b61085982610f23565b6108638282610f2b565b5050565b6000610871610fed565b5060008051602061180283398151915290565b6005805461089190611685565b80601f01602080910402602001604051908101604052809291908181526020018280546108bd90611685565b801561090a5780601f106108df5761010080835404028352916020019161090a565b820191906000526020600020905b8154815290600101906020018083116108ed57829003601f168201915b505050505081565b61091a610dc9565b6108466000611036565b61092c610dc9565b6108466110a7565b6060600380548060200260200160405190810160405280929190818152602001828054801561098c57602002820191906000526020600020905b81546001600160a01b0316815260019091019060200180831161096e575b5050505050905090565b61099e610dc9565b6001600160a01b0381166109c55760405163902732e760e01b815260040160405180910390fd5b600680546001600160a01b0319166001600160a01b0392909216919091179055565b7ff0c57e16840df040f15088dc2f81fe391c3923bec73e23a9662efc9c229c6a008054600160401b810460ff16159067ffffffffffffffff16600081158015610a2d5750825b905060008267ffffffffffffffff166001148015610a4a5750303b155b905081158015610a58575080155b15610a765760405163f92ee8a960e01b815260040160405180910390fd5b845467ffffffffffffffff191660011785558315610aa057845460ff60401b1916600160401b1785555b6001600160a01b038816610ac75760405163c8321af560e01b815260040160405180910390fd5b6001600160a01b038716610aee5760405163325c055b60e21b815260040160405180910390fd5b6001600160a01b038616610b155760405163902732e760e01b815260040160405180910390fd5b610b1e336110f0565b610b26611101565b610b2e611111565b600080546001600160a01b03808b166001600160a01b031992831617909255600180548a841690831617815560068054938a1693909216929092179055600455604080518082019091526005808252640312e302e360dc1b602083015290610b96908261170d565b508315610bdd57845460ff60401b19168555604051600181527fc7f505b2f371ae2175ee4913f4499e1f2633a7b5936321eed1cdaeb6115181d29060200160405180910390a15b5050505050505050565b610bef610dc9565b6001600160a01b038116610c165760405163c8321af560e01b815260040160405180910390fd5b806001600160a01b03163b600003610c415760405163c8321af560e01b815260040160405180910390fd5b600080546001600160a01b0319166001600160a01b0383169081179091556040519081527f837604ebeba6927bc9d0604fecab790891b803cf0d7ac480afad25a6c8219dd0906020015b60405180910390a150565b610c9e610dc9565b6001600160a01b038116610ccd57604051631e4fbdf760e01b8152600060048201526024015b60405180910390fd5b610cd681611036565b50565b610ce1610dc9565b6001600160a01b038116610d085760405163325c055b60e21b815260040160405180910390fd5b806001600160a01b03163b600003610d335760405163325c055b60e21b815260040160405180910390fd5b600180546001600160a01b0319166001600160a01b0383169081179091556040519081527f2300b8850de781a18182887ad0f7ceb7f88085ad32ee789eecfe4ae08fc06f9c90602001610c8b565b6000805160206118228339815191525460ff16156108465760405163d93c066560e01b815260040160405180910390fd5b6000610dc083836000611119565b90505b92915050565b33610dfb7f9016d09d72d40fdae2fd8ceac6b6234c7706214fd39c1cd1e609a0528c199300546001600160a01b031690565b6001600160a01b0316146108465760405163118cdaa760e01b8152336004820152602401610cc4565b610e2c6111b7565b600080516020611822833981519152805460ff191681557f5db9ee0a495bf2e6ff9c91a7834c1ba4fdd244a5e8aa4e537bd38aeae4b073aa335b6040516001600160a01b039091168152602001610c8b565b306001600160a01b037f0000000000000000000000000000000000000000000000000000000000000000161480610f0557507f00000000000000000000000000000000000000000000000000000000000000006001600160a01b0316610ef9600080516020611802833981519152546001600160a01b031690565b6001600160a01b031614155b156108465760405163703e46dd60e11b815260040160405180910390fd5b610cd6610dc9565b816001600160a01b03166352d1902d6040518163ffffffff1660e01b8152600401602060405180830381865afa925050508015610f85575060408051601f3d908101601f19168201909252610f82918101906117cc565b60015b610fad57604051634c9c8ce360e01b81526001600160a01b0383166004820152602401610cc4565b6000805160206118028339815191528114610fde57604051632a87526960e21b815260048101829052602401610cc4565b610fe883836111e7565b505050565b306001600160a01b037f000000000000000000000000000000000000000000000000000000000000000016146108465760405163703e46dd60e11b815260040160405180910390fd5b7f9016d09d72d40fdae2fd8ceac6b6234c7706214fd39c1cd1e609a0528c19930080546001600160a01b031981166001600160a01b03848116918217845560405192169182907f8be0079c531659141344cd1fd0a4f28419497f9722a3daafe3b4186f6b6457e090600090a3505050565b6110af610d81565b600080516020611822833981519152805460ff191660011781557f62e78cea01bee320cd4e420270b5ea74000d11b0c9f74754ebdbfc544b05a25833610e66565b6110f861123d565b610cd681611286565b61110961123d565b61084661128e565b61084661123d565b6000814710156111455760405163cf47918160e01b815247600482015260248101839052604401610cc4565b763d602d80600a3d3981f3363d3d373d3d3d363d730000008460601b60e81c176000526e5af43d82803e903d91602b57fd5bf38460781b17602052826037600984f590506001600160a01b0381166111b05760405163b06ebf3d60e01b815260040160405180910390fd5b9392505050565b6000805160206118228339815191525460ff1661084657604051638dfc202b60e01b815260040160405180910390fd5b6111f0826112af565b6040516001600160a01b038316907fbc7cd75a20ee27fd9adebab32041f755214dbc6bffa90cc0225b39da2e5c2d3b90600090a280511561123557610fe88282611314565b61086361138a565b7ff0c57e16840df040f15088dc2f81fe391c3923bec73e23a9662efc9c229c6a0054600160401b900460ff1661084657604051631afcd79f60e31b815260040160405180910390fd5b610c9e61123d565b61129661123d565b600080516020611822833981519152805460ff19169055565b806001600160a01b03163b6000036112e557604051634c9c8ce360e01b81526001600160a01b0382166004820152602401610cc4565b60008051602061180283398151915280546001600160a01b0319166001600160a01b0392909216919091179055565b6060600080846001600160a01b03168460405161133191906117e5565b600060405180830381855af49150503d806000811461136c576040519150601f19603f3d011682016040523d82523d6000602084013e611371565b606091505b50915091506113818583836113a9565b95945050505050565b34156108465760405163b398979f60e01b815260040160405180910390fd5b6060826113be576113b982611405565b6111b0565b81511580156113d557506001600160a01b0384163b155b156113fe57604051639996b31560e01b81526001600160a01b0385166004820152602401610cc4565b50806111b0565b8051156114155780518082602001fd5b60405163d6bda27560e01b815260040160405180910390fd5b80356001600160a01b038116811461144557600080fd5b919050565b6000806000806080858703121561146057600080fd5b6114698561142e565b966020860135965060408601359560600135945092505050565b634e487b7160e01b600052604160045260246000fd5b600080604083850312156114ac57600080fd5b6114b58361142e565b9150602083013567ffffffffffffffff8111156114d157600080fd5b8301601f810185136114e257600080fd5b803567ffffffffffffffff8111156114fc576114fc611483565b604051601f8201601f19908116603f0116810167ffffffffffffffff8111828210171561152b5761152b611483565b60405281815282820160200187101561154357600080fd5b816020840160208301376000602083830101528093505050509250929050565b60005b8381101561157e578181015183820152602001611566565b50506000910152565b60208152600082518060208401526115a6816040850160208701611563565b601f01601f19169190910160400192915050565b6000602082840312156115cc57600080fd5b610dc08261142e565b602080825282518282018190526000918401906040840190835b818110156116165783516001600160a01b03168352602093840193909201916001016115ef565b509095945050505050565b60008060006060848603121561163657600080fd5b61163f8461142e565b925061164d6020850161142e565b915061165b6040850161142e565b90509250925092565b80820180821115610dc357634e487b7160e01b600052601160045260246000fd5b600181811c9082168061169957607f821691505b6020821081036116b957634e487b7160e01b600052602260045260246000fd5b50919050565b601f821115610fe857806000526020600020601f840160051c810160208510156116e65750805b601f840160051c820191505b8181101561170657600081556001016116f2565b5050505050565b815167ffffffffffffffff81111561172757611727611483565b61173b816117358454611685565b846116bf565b6020601f82116001811461176f57600083156117575750848201515b600019600385901b1c1916600184901b178455611706565b600084815260208120601f198516915b8281101561179f578785015182556020948501946001909201910161177f565b50848210156117bd5786840151600019600387901b60f8161c191681555b50505050600190811b01905550565b6000602082840312156117de57600080fd5b5051919050565b600082516117f7818460208701611563565b919091019291505056fe360894a13ba1a3210667c828492db98dca3e2076cc3735a920a3ca505d382bbccd5ed15c6e187e77e9aee88184c21f4f2182ab5827cb3b7e07fbedcd63f03300a26469706673582212206932f782205394f1f186c0c9b67a2bbaa2914415d4a5b1e60a29d126919873bf64736f6c634300081b0033",
  "linkReferences": {},
  "deployedLinkReferences": {}
}