{
  "_format": "hh-sol-artifact-1",
  "contractName": "RaffleFactory",
  "sourceName": "contracts/RaffleFactory.sol",
  "abi": [
    {
      "inputs": [],
      "stateMutability": "nonpayable",
      "type": "constructor"
    },
    {
      "inputs": [
        {
          "internalType": "address",
          "name": "target",
          "type": "address"
        }
      ],
      "name": "AddressEmptyCode",
      "type": "error"
    },
    {
      "inputs": [
        {
          "internalType": "address",
          "name": "implementation",
          "type": "address"
        }
      ],
      "name": "ERC1967InvalidImplementation",
      "type": "error"
    },
    {
      "inputs": [],
      "name": "ERC1967NonPayable",
      "type": "error"
    },
    {
      "inputs": [],
      "name": "EnforcedPause",
      "type": "error"
    },
    {
      "inputs": [],
      "name": "ExpectedPause",
      "type": "error"
    },
    {
      "inputs": [],
      "name": "FailedCall",
      "type": "error"
    },
    {
      "inputs": [],
      "name": "FailedDeployment",
      "type": "error"
    },
    {
      "inputs": [
        {
          "internalType": "uint256",
          "name": "balance",
          "type": "uint256"
        },
        {
          "internalType": "uint256",
          "name": "needed",
          "type": "uint256"
        }
      ],
      "name": "InsufficientBalance",
      "type": "error"
    },
    {
      "inputs": [],
      "name": "InvalidInitialization",
      "type": "error"
    },
    {
      "inputs": [],
      "name": "NotInitializing",
      "type": "error"
    },
    {
      "inputs": [
        {
          "internalType": "address",
          "name": "owner",
          "type": "address"
        }
      ],
      "name": "OwnableInvalidOwner",
      "type": "error"
    },
    {
      "inputs": [
        {
          "internalType": "address",
          "name": "account",
          "type": "address"
        }
      ],
      "name": "OwnableUnauthorizedAccount",
      "type": "error"
    },
    {
      "inputs": [],
      "name": "UUPSUnauthorizedCallContext",
      "type": "error"
    },
    {
      "inputs": [
        {
          "internalType": "bytes32",
          "name": "slot",
          "type": "bytes32"
        }
      ],
      "name": "UUPSUnsupportedProxiableUUID",
      "type": "error"
    },
    {
      "anonymous": false,
      "inputs": [
        {
          "indexed": false,
          "internalType": "uint64",
          "name": "version",
          "type": "uint64"
        }
      ],
      "name": "Initialized",
      "type": "event"
    },
    {
      "anonymous": false,
      "inputs": [
        {
          "indexed": false,
          "internalType": "address",
          "name": "newNotifications",
          "type": "address"
        }
      ],
      "name": "NotificationsUpdated",
      "type": "event"
    },
    {
      "anonymous": false,
      "inputs": [
        {
          "indexed": true,
          "internalType": "address",
          "name": "previousOwner",
          "type": "address"
        },
        {
          "indexed": true,
          "internalType": "address",
          "name": "newOwner",
          "type": "address"
        }
      ],
      "name": "OwnershipTransferred",
      "type": "event"
    },
    {
      "anonymous": false,
      "inputs": [
        {
          "indexed": false,
          "internalType": "address",
          "name": "account",
          "type": "address"
        }
      ],
      "name": "Paused",
      "type": "event"
    },
    {
      "anonymous": false,
      "inputs": [
        {
          "indexed": true,
          "internalType": "address",
          "name": "raffleAddress",
          "type": "address"
        },
        {
          "indexed": true,
          "internalType": "address",
          "name": "creator",
          "type": "address"
        },
        {
          "indexed": true,
          "internalType": "uint256",
          "name": "raffleId",
          "type": "uint256"
        },
        {
          "indexed": false,
          "internalType": "address",
          "name": "token",
          "type": "address"
        },
        {
          "indexed": false,
          "internalType": "uint256",
          "name": "ticketPrice",
          "type": "uint256"
        },
        {
          "indexed": false,
          "internalType": "uint256",
          "name": "duration",
          "type": "uint256"
        },
        {
          "indexed": false,
          "internalType": "uint256",
          "name": "guaranteedPrizePool",
          "type": "uint256"
        },
        {
          "indexed": false,
          "internalType": "uint256",
          "name": "timestamp",
          "type": "uint256"
        }
      ],
      "name": "RaffleDeployed",
      "type": "event"
    },
    {
      "anonymous": false,
      "inputs": [
        {
          "indexed": false,
          "internalType": "address",
          "name": "newImplementation",
          "type": "address"
        }
      ],
      "name": "RaffleImplementationUpdated",
      "type": "event"
    },
    {
      "anonymous": false,
      "inputs": [
        {
          "indexed": false,
          "internalType": "address",
          "name": "account",
          "type": "address"
        }
      ],
      "name": "Unpaused",
      "type": "event"
    },
    {
      "anonymous": false,
      "inputs": [
        {
          "indexed": true,
          "internalType": "address",
          "name": "implementation",
          "type": "address"
        }
      ],
      "name": "Upgraded",
      "type": "event"
    },
    {
      "inputs": [],
      "name": "UPGRADE_INTERFACE_VERSION",
      "outputs": [
        {
          "internalType": "string",
          "name": "",
          "type": "string"
        }
      ],
      "stateMutability": "view",
      "type": "function"
    },
    {
      "inputs": [
        {
          "internalType": "address",
          "name": "tokenAddress",
          "type": "address"
        },
        {
          "internalType": "uint256",
          "name": "ticketPrice",
          "type": "uint256"
        },
        {
          "internalType": "uint256",
          "name": "duration",
          "type": "uint256"
        },
        {
          "internalType": "uint256",
          "name": "guaranteedPrizePool",
          "type": "uint256"
        }
      ],
      "name": "deployRaffle",
      "outputs": [
        {
          "internalType": "address",
          "name": "",
          "type": "address"
        }
      ],
      "stateMutability": "nonpayable",
      "type": "function"
    },
    {
      "inputs": [],
      "name": "getAllRaffles",
      "outputs": [
        {
          "internalType": "address[]",
          "name": "",
          "type": "address[]"
        }
      ],
      "stateMutability": "view",
      "type": "function"
    },
    {
      "inputs": [
        {
          "internalType": "uint256",
          "name": "raffleId",
          "type": "uint256"
        }
      ],
      "name": "getRaffleById",
      "outputs": [
        {
          "internalType": "address",
          "name": "",
          "type": "address"
        }
      ],
      "stateMutability": "view",
      "type": "function"
    },
    {
      "inputs": [],
      "name": "getRaffleCount",
      "outputs": [
        {
          "internalType": "uint256",
          "name": "",
          "type": "uint256"
        }
      ],
      "stateMutability": "view",
      "type": "function"
    },
    {
      "inputs": [
        {
          "internalType": "uint256",
          "name": "offset",
          "type": "uint256"
        },
        {
          "internalType": "uint256",
          "name": "limit",
          "type": "uint256"
        }
      ],
      "name": "getRafflesPaginated",
      "outputs": [
        {
          "internalType": "address[]",
          "name": "rafflePage",
          "type": "address[]"
        }
      ],
      "stateMutability": "view",
      "type": "function"
    },
    {
      "inputs": [
        {
          "internalType": "address",
          "name": "_notifications",
          "type": "address"
        },
        {
          "internalType": "address",
          "name": "_raffleImplementation",
          "type": "address"
        }
      ],
      "name": "initialize",
      "outputs": [],
      "stateMutability": "nonpayable",
      "type": "function"
    },
    {
      "inputs": [
        {
          "internalType": "address",
          "name": "",
          "type": "address"
        }
      ],
      "name": "isValidRaffle",
      "outputs": [
        {
          "internalType": "bool",
          "name": "",
          "type": "bool"
        }
      ],
      "stateMutability": "view",
      "type": "function"
    },
    {
      "inputs": [],
      "name": "nextRaffleId",
      "outputs": [
        {
          "internalType": "uint256",
          "name": "",
          "type": "uint256"
        }
      ],
      "stateMutability": "view",
      "type": "function"
    },
    {
      "inputs": [],
      "name": "notifications",
      "outputs": [
        {
          "internalType": "contract RaffleNotifications",
          "name": "",
          "type": "address"
        }
      ],
      "stateMutability": "view",
      "type": "function"
    },
    {
      "inputs": [],
      "name": "owner",
      "outputs": [
        {
          "internalType": "address",
          "name": "",
          "type": "address"
        }
      ],
      "stateMutability": "view",
      "type": "function"
    },
    {
      "inputs": [],
      "name": "pause",
      "outputs": [],
      "stateMutability": "nonpayable",
      "type": "function"
    },
    {
      "inputs": [],
      "name": "paused",
      "outputs": [
        {
          "internalType": "bool",
          "name": "",
          "type": "bool"
        }
      ],
      "stateMutability": "view",
      "type": "function"
    },
    {
      "inputs": [
        {
          "internalType": "address",
          "name": "creator",
          "type": "address"
        },
        {
          "internalType": "address",
          "name": "tokenAddress",
          "type": "address"
        },
        {
          "internalType": "uint256",
          "name": "ticketPrice",
          "type": "uint256"
        },
        {
          "internalType": "uint256",
          "name": "duration",
          "type": "uint256"
        },
        {
          "internalType": "uint256",
          "name": "guaranteedPrizePool",
          "type": "uint256"
        }
      ],
      "name": "predictNextRaffleAddress",
      "outputs": [
        {
          "internalType": "address",
          "name": "predicted",
          "type": "address"
        }
      ],
      "stateMutability": "view",
      "type": "function"
    },
    {
      "inputs": [],
      "name": "proxiableUUID",
      "outputs": [
        {
          "internalType": "bytes32",
          "name": "",
          "type": "bytes32"
        }
      ],
      "stateMutability": "view",
      "type": "function"
    },
    {
      "inputs": [],
      "name": "raffleImplementation",
      "outputs": [
        {
          "internalType": "address",
          "name": "",
          "type": "address"
        }
      ],
      "stateMutability": "view",
      "type": "function"
    },
    {
      "inputs": [],
      "name": "renounceOwnership",
      "outputs": [],
      "stateMutability": "nonpayable",
      "type": "function"
    },
    {
      "inputs": [
        {
          "internalType": "address",
          "name": "newOwner",
          "type": "address"
        }
      ],
      "name": "transferOwnership",
      "outputs": [],
      "stateMutability": "nonpayable",
      "type": "function"
    },
    {
      "inputs": [],
      "name": "unpause",
      "outputs": [],
      "stateMutability": "nonpayable",
      "type": "function"
    },
    {
      "inputs": [
        {
          "internalType": "address",
          "name": "_notifications",
          "type": "address"
        }
      ],
      "name": "updateNotifications",
      "outputs": [],
      "stateMutability": "nonpayable",
      "type": "function"
    },
    {
      "inputs": [
        {
          "internalType": "address",
          "name": "_newImplementation",
          "type": "address"
        }
      ],
      "name": "updateRaffleImplementation",
      "outputs": [],
      "stateMutability": "nonpayable",
      "type": "function"
    },
    {
      "inputs": [
        {
          "internalType": "address",
          "name": "newImplementation",
          "type": "address"
        },
        {
          "internalType": "bytes",
          "name": "data",
          "type": "bytes"
        }
      ],
      "name": "upgradeToAndCall",
      "outputs": [],
      "stateMutability": "payable",
      "type": "function"
    },
    {
      "inputs": [],
      "name": "version",
      "outputs": [
        {
          "internalType": "string",
          "name": "",
          "type": "string"
        }
      ],
      "stateMutability": "view",
      "type": "function"
    }
  ],
  "bytecode": "0x60a06040523060805234801561001457600080fd5b5061001d610022565b6100d4565b7ff0c57e16840df040f15088dc2f81fe391c3923bec73e23a9662efc9c229c6a00805468010000000000000000900460ff16156100725760405163f92ee8a960e01b815260040160405180910390fd5b80546001600160401b03908116146100d15780546001600160401b0319166001600160401b0390811782556040519081527fc7f505b2f371ae2175ee4913f4499e1f2633a7b5936321eed1cdaeb6115181d29060200160405180910390a15b50565b608051611bea6100fd600039600081816110fc01528181611125015261126b0152611bea6000f3fe60806040526004361061013f5760003560e01c806372858b46116100b6578063933eea6b1161006f578063933eea6b14610383578063ad3cb1cc146103a5578063ba40e5a2146103d6578063d76001f9146103f6578063f2fde38b14610416578063f941cdb01461043657600080fd5b806372858b46146102bb5780638456cb59146102db5780638458e3e4146102f057806386ca5e3514610306578063888f232c146103265780638da5cb5b1461034657600080fd5b80634f1ef286116101085780634f1ef286146101f757806352d1902d1461020a57806354fd4d501461021f57806359838feb146102415780635c975abb14610281578063715018a6146102a657600080fd5b80620df2a8146101445780631d8c6086146101815780633d1da5ed146101a05780633f4ba83a146101c0578063485cc955146101d7575b600080fd5b34801561015057600080fd5b5061016461015f3660046116f2565b610456565b6040516001600160a01b0390911681526020015b60405180910390f35b34801561018d57600080fd5b506003545b604051908152602001610178565b3480156101ac57600080fd5b50600154610164906001600160a01b031681565b3480156101cc57600080fd5b506101d56107fa565b005b3480156101e357600080fd5b506101d56101f236600461172b565b61080c565b6101d5610205366004611774565b610a26565b34801561021657600080fd5b50610192610a45565b34801561022b57600080fd5b50610234610a62565b6040516101789190611862565b34801561024d57600080fd5b5061027161025c366004611895565b60026020526000908152604090205460ff1681565b6040519015158152602001610178565b34801561028d57600080fd5b50600080516020611b958339815191525460ff16610271565b3480156102b257600080fd5b506101d5610af0565b3480156102c757600080fd5b506101646102d63660046118b0565b610b02565b3480156102e757600080fd5b506101d5610b5c565b3480156102fc57600080fd5b5061019260045481565b34801561031257600080fd5b506101646103213660046118fd565b610b6c565b34801561033257600080fd5b50600054610164906001600160a01b031681565b34801561035257600080fd5b507f9016d09d72d40fdae2fd8ceac6b6234c7706214fd39c1cd1e609a0528c199300546001600160a01b0316610164565b34801561038f57600080fd5b50610398610c10565b6040516101789190611916565b3480156103b157600080fd5b50610234604051806040016040528060058152602001640352e302e360dc1b81525081565b3480156103e257600080fd5b506103986103f1366004611962565b610c72565b34801561040257600080fd5b506101d5610411366004611895565b610da9565b34801561042257600080fd5b506101d5610431366004611895565b610e9f565b34801561044257600080fd5b506101d5610451366004611895565b610edd565b6000610460610fcd565b6001600160a01b0385166104ab5760405162461bcd60e51b815260206004820152600d60248201526c24b73b30b634b2103a37b5b2b760991b60448201526064015b60405180910390fd5b600084116104eb5760405162461bcd60e51b815260206004820152600d60248201526c496e76616c696420707269636560981b60448201526064016104a2565b620151808310156105335760405162461bcd60e51b8152602060048201526012602482015271111d5c985d1a5bdb881d1bdbc81cda1bdc9d60721b60448201526064016104a2565b62278d0083111561057a5760405162461bcd60e51b81526020600482015260116024820152704475726174696f6e20746f6f206c6f6e6760781b60448201526064016104a2565b600082116105bf5760405162461bcd60e51b8152602060048201526012602482015271125b9d985b1a59081c1c9a5e99481c1bdbdb60721b60448201526064016104a2565b6004546040516000906105d89033908490602001611984565b60408051601f19818403018152919052805160209091012060015490915060009061060c906001600160a01b031683610ffe565b6000546040516317f3fc2760e31b81526001600160a01b038b81166004830152602482018b9052604482018a90526064820189905291821660848201523360a482015291925082169063bf9fe1389060c401600060405180830381600087803b15801561067857600080fd5b505af115801561068c573d6000803e3d6000fd5b5050506001600160a01b0382166000818152600260205260408120805460ff1916600190811790915560038054808301825592527fc2575a0e9e593c00f959f8c92f12db2869c3395a3b0502d05e2516446f71f85b90910180546001600160a01b03191690921790915560045491506107069082906119bc565b600490815560005460405163c2d370ff60e01b81526001600160a01b03858116938201939093523360248201528b83166044820152606481018b9052608481018a905260a4810189905291169063c2d370ff9060c401600060405180830381600087803b15801561077657600080fd5b505af115801561078a573d6000803e3d6000fd5b5050604080516001600160a01b038d81168252602082018d90529181018b9052606081018a9052426080820152849350339250908516907f096425db8f969aca21fe6d9fd3b393ae28b9305ee10c7ac0ccdc4f9f2d93b06c9060a00160405180910390a450979650505050505050565b610802611013565b61080a61106e565b565b7ff0c57e16840df040f15088dc2f81fe391c3923bec73e23a9662efc9c229c6a008054600160401b810460ff16159067ffffffffffffffff166000811580156108525750825b905060008267ffffffffffffffff16600114801561086f5750303b155b90508115801561087d575080155b1561089b5760405163f92ee8a960e01b815260040160405180910390fd5b845467ffffffffffffffff1916600117855583156108c557845460ff60401b1916600160401b1785555b6001600160a01b0387166109135760405162461bcd60e51b8152602060048201526015602482015274496e76616c6964206e6f74696669636174696f6e7360581b60448201526064016104a2565b6001600160a01b0386166109625760405162461bcd60e51b815260206004820152601660248201527524b73b30b634b21034b6b83632b6b2b73a30ba34b7b760511b60448201526064016104a2565b61096b336110c8565b6109736110d9565b61097b6110e9565b600080546001600160a01b03808a166001600160a01b0319928316179092556001805492891692909116919091178155600455604080518082019091526005808252640312e302e360dc1b6020830152906109d69082611a57565b508315610a1d57845460ff60401b19168555604051600181527fc7f505b2f371ae2175ee4913f4499e1f2633a7b5936321eed1cdaeb6115181d29060200160405180910390a15b50505050505050565b610a2e6110f1565b610a3782611196565b610a41828261119e565b5050565b6000610a4f611260565b50600080516020611b7583398151915290565b60058054610a6f906119cf565b80601f0160208091040260200160405190810160405280929190818152602001828054610a9b906119cf565b8015610ae85780601f10610abd57610100808354040283529160200191610ae8565b820191906000526020600020905b815481529060010190602001808311610acb57829003601f168201915b505050505081565b610af8611013565b61080a60006112a9565b600454604051600091908290610b1e9089908490602001611984565b60408051601f198184030181529190528051602090910120600154909150610b50906001600160a01b0316823061131a565b98975050505050505050565b610b64611013565b61080a61137f565b60008082118015610b7e575060045482105b610bbe5760405162461bcd60e51b8152602060048201526011602482015270125b9d985b1a59081c9859999b19481251607a1b60448201526064016104a2565b6040518290600090610bd69033908490602001611984565b60408051601f198184030181529190528051602090910120600154909150610c08906001600160a01b0316823061131a565b949350505050565b60606003805480602002602001604051908101604052809291908181526020018280548015610c6857602002820191906000526020600020905b81546001600160a01b03168152600190910190602001808311610c4a575b5050505050905090565b6003546060908310610cb75760405162461bcd60e51b815260206004820152600e60248201526d125b9d985b1a59081bd9999cd95d60921b60448201526064016104a2565b6000610cc383856119bc565b600354909150811115610cd557506003545b6000610ce18583611b16565b90508067ffffffffffffffff811115610cfc57610cfc61175e565b604051908082528060200260200182016040528015610d25578160200160208202803683370190505b50925060005b81811015610d9f576003610d3f82886119bc565b81548110610d4f57610d4f611b29565b9060005260206000200160009054906101000a90046001600160a01b0316848281518110610d7f57610d7f611b29565b6001600160a01b0390921660209283029190910190910152600101610d2b565b5050505b92915050565b610db1611013565b6001600160a01b038116610dff5760405162461bcd60e51b8152602060048201526015602482015274496e76616c6964206e6f74696669636174696f6e7360581b60448201526064016104a2565b6000816001600160a01b03163b11610e4a5760405162461bcd60e51b815260206004820152600e60248201526d139bdd08184818dbdb9d1c9858dd60921b60448201526064016104a2565b600080546001600160a01b0319166001600160a01b0383169081179091556040519081527f837604ebeba6927bc9d0604fecab790891b803cf0d7ac480afad25a6c8219dd0906020015b60405180910390a150565b610ea7611013565b6001600160a01b038116610ed157604051631e4fbdf760e01b8152600060048201526024016104a2565b610eda816112a9565b50565b610ee5611013565b6001600160a01b038116610f345760405162461bcd60e51b815260206004820152601660248201527524b73b30b634b21034b6b83632b6b2b73a30ba34b7b760511b60448201526064016104a2565b6000816001600160a01b03163b11610f7f5760405162461bcd60e51b815260206004820152600e60248201526d139bdd08184818dbdb9d1c9858dd60921b60448201526064016104a2565b600180546001600160a01b0319166001600160a01b0383169081179091556040519081527f2300b8850de781a18182887ad0f7ceb7f88085ad32ee789eecfe4ae08fc06f9c90602001610e94565b600080516020611b958339815191525460ff161561080a5760405163d93c066560e01b815260040160405180910390fd5b600061100c838360006113c8565b9392505050565b336110457f9016d09d72d40fdae2fd8ceac6b6234c7706214fd39c1cd1e609a0528c199300546001600160a01b031690565b6001600160a01b03161461080a5760405163118cdaa760e01b81523360048201526024016104a2565b61107661145f565b600080516020611b95833981519152805460ff191681557f5db9ee0a495bf2e6ff9c91a7834c1ba4fdd244a5e8aa4e537bd38aeae4b073aa335b6040516001600160a01b039091168152602001610e94565b6110d061148f565b610eda816114d8565b6110e161148f565b61080a6114e0565b61080a61148f565b306001600160a01b037f000000000000000000000000000000000000000000000000000000000000000016148061117857507f00000000000000000000000000000000000000000000000000000000000000006001600160a01b031661116c600080516020611b75833981519152546001600160a01b031690565b6001600160a01b031614155b1561080a5760405163703e46dd60e11b815260040160405180910390fd5b610eda611013565b816001600160a01b03166352d1902d6040518163ffffffff1660e01b8152600401602060405180830381865afa9250505080156111f8575060408051601f3d908101601f191682019092526111f591810190611b3f565b60015b61122057604051634c9c8ce360e01b81526001600160a01b03831660048201526024016104a2565b600080516020611b75833981519152811461125157604051632a87526960e21b8152600481018290526024016104a2565b61125b8383611501565b505050565b306001600160a01b037f0000000000000000000000000000000000000000000000000000000000000000161461080a5760405163703e46dd60e11b815260040160405180910390fd5b7f9016d09d72d40fdae2fd8ceac6b6234c7706214fd39c1cd1e609a0528c19930080546001600160a01b031981166001600160a01b03848116918217845560405192169182907f8be0079c531659141344cd1fd0a4f28419497f9722a3daafe3b4186f6b6457e090600090a3505050565b60405160388101919091526f5af43d82803e903d91602b57fd5bf3ff60248201526014810192909252733d602d80600a3d3981f3363d3d373d3d3d363d73825260588201526037600c820120607882015260556043909101206001600160a01b031690565b611387610fcd565b600080516020611b95833981519152805460ff191660011781557f62e78cea01bee320cd4e420270b5ea74000d11b0c9f74754ebdbfc544b05a258336110b0565b6000814710156113f45760405163cf47918160e01b8152476004820152602481018390526044016104a2565b763d602d80600a3d3981f3363d3d373d3d3d363d730000008460601b60e81c176000526e5af43d82803e903d91602b57fd5bf38460781b17602052826037600984f590506001600160a01b03811661100c5760405163b06ebf3d60e01b815260040160405180910390fd5b600080516020611b958339815191525460ff1661080a57604051638dfc202b60e01b815260040160405180910390fd5b7ff0c57e16840df040f15088dc2f81fe391c3923bec73e23a9662efc9c229c6a0054600160401b900460ff1661080a57604051631afcd79f60e31b815260040160405180910390fd5b610ea761148f565b6114e861148f565b600080516020611b95833981519152805460ff19169055565b61150a82611557565b6040516001600160a01b038316907fbc7cd75a20ee27fd9adebab32041f755214dbc6bffa90cc0225b39da2e5c2d3b90600090a280511561154f5761125b82826115bc565b610a41611632565b806001600160a01b03163b60000361158d57604051634c9c8ce360e01b81526001600160a01b03821660048201526024016104a2565b600080516020611b7583398151915280546001600160a01b0319166001600160a01b0392909216919091179055565b6060600080846001600160a01b0316846040516115d99190611b58565b600060405180830381855af49150503d8060008114611614576040519150601f19603f3d011682016040523d82523d6000602084013e611619565b606091505b5091509150611629858383611651565b95945050505050565b341561080a5760405163b398979f60e01b815260040160405180910390fd5b60608261166657611661826116ad565b61100c565b815115801561167d57506001600160a01b0384163b155b156116a657604051639996b31560e01b81526001600160a01b03851660048201526024016104a2565b508061100c565b8051156116bd5780518082602001fd5b60405163d6bda27560e01b815260040160405180910390fd5b80356001600160a01b03811681146116ed57600080fd5b919050565b6000806000806080858703121561170857600080fd5b611711856116d6565b966020860135965060408601359560600135945092505050565b6000806040838503121561173e57600080fd5b611747836116d6565b9150611755602084016116d6565b90509250929050565b634e487b7160e01b600052604160045260246000fd5b6000806040838503121561178757600080fd5b611790836116d6565b9150602083013567ffffffffffffffff8111156117ac57600080fd5b8301601f810185136117bd57600080fd5b803567ffffffffffffffff8111156117d7576117d761175e565b604051601f8201601f19908116603f0116810167ffffffffffffffff811182821017156118065761180661175e565b60405281815282820160200187101561181e57600080fd5b816020840160208301376000602083830101528093505050509250929050565b60005b83811015611859578181015183820152602001611841565b50506000910152565b602081526000825180602084015261188181604085016020870161183e565b601f01601f19169190910160400192915050565b6000602082840312156118a757600080fd5b61100c826116d6565b600080600080600060a086880312156118c857600080fd5b6118d1866116d6565b94506118df602087016116d6565b94979496505050506040830135926060810135926080909101359150565b60006020828403121561190f57600080fd5b5035919050565b602080825282518282018190526000918401906040840190835b818110156119575783516001600160a01b0316835260209384019390920191600101611930565b509095945050505050565b6000806040838503121561197557600080fd5b50508035926020909101359150565b60609290921b6bffffffffffffffffffffffff19168252601482015260340190565b634e487b7160e01b600052601160045260246000fd5b80820180821115610da357610da36119a6565b600181811c908216806119e357607f821691505b602082108103611a0357634e487b7160e01b600052602260045260246000fd5b50919050565b601f82111561125b57806000526020600020601f840160051c81016020851015611a305750805b601f840160051c820191505b81811015611a505760008155600101611a3c565b5050505050565b815167ffffffffffffffff811115611a7157611a7161175e565b611a8581611a7f84546119cf565b84611a09565b6020601f821160018114611ab95760008315611aa15750848201515b600019600385901b1c1916600184901b178455611a50565b600084815260208120601f198516915b82811015611ae95787850151825560209485019460019092019101611ac9565b5084821015611b075786840151600019600387901b60f8161c191681555b50505050600190811b01905550565b81810381811115610da357610da36119a6565b634e487b7160e01b600052603260045260246000fd5b600060208284031215611b5157600080fd5b5051919050565b60008251611b6a81846020870161183e565b919091019291505056fe360894a13ba1a3210667c828492db98dca3e2076cc3735a920a3ca505d382bbccd5ed15c6e187e77e9aee88184c21f4f2182ab5827cb3b7e07fbedcd63f03300a264697066735822122019927d2d5dbeda2405fbfaf7b066c4efcd35012cda580ccb2711eacef47f2f6e64736f6c634300081b0033",
  "linkReferences": {},
  "deployedLinkReferences": {}
}