{
  "_format": "hh-sol-artifact-1",
  "contractName": "Raffle",
  "sourceName": "contracts/Raffle.sol",
  "abi": [
    {
      "inputs": [],
      "stateMutability": "nonpayable",
      "type": "constructor"
    },
    {
      "inputs": [],
      "name": "AlreadyInitialized",
      "type": "error"
    },
    {
      "inputs": [],
      "name": "EnforcedPause",
      "type": "error"
    },
    {
      "inputs": [],
      "name": "ExpectedPause",
      "type": "error"
    },
    {
      "inputs": [],
      "name": "InsufficientParticipants",
      "type": "error"
    },
    {
      "inputs": [],
      "name": "InvalidTicketAmount",
      "type": "error"
    },
    {
      "inputs": [],
      "name": "NoShortfallExists",
      "type": "error"
    },
    {
      "inputs": [],
      "name": "NotFactory",
      "type": "error"
    },
    {
      "inputs": [],
      "name": "NotWinner",
      "type": "error"
    },
    {
      "inputs": [
        {
          "internalType": "address",
          "name": "owner",
          "type": "address"
        }
      ],
      "name": "OwnableInvalidOwner",
      "type": "error"
    },
    {
      "inputs": [
        {
          "internalType": "address",
          "name": "account",
          "type": "address"
        }
      ],
      "name": "OwnableUnauthorizedAccount",
      "type": "error"
    },
    {
      "inputs": [],
      "name": "PrizeAlreadyClaimed",
      "type": "error"
    },
    {
      "inputs": [],
      "name": "RaffleEnded",
      "type": "error"
    },
    {
      "inputs": [],
      "name": "RaffleNotEnded",
      "type": "error"
    },
    {
      "inputs": [],
      "name": "ReentrancyGuardReentrantCall",
      "type": "error"
    },
    {
      "inputs": [],
      "name": "SelectionInProgress",
      "type": "error"
    },
    {
      "inputs": [],
      "name": "TransferFailed",
      "type": "error"
    },
    {
      "anonymous": false,
      "inputs": [
        {
          "indexed": true,
          "internalType": "address",
          "name": "previousOwner",
          "type": "address"
        },
        {
          "indexed": true,
          "internalType": "address",
          "name": "newOwner",
          "type": "address"
        }
      ],
      "name": "OwnershipTransferred",
      "type": "event"
    },
    {
      "anonymous": false,
      "inputs": [
        {
          "indexed": false,
          "internalType": "address",
          "name": "account",
          "type": "address"
        }
      ],
      "name": "Paused",
      "type": "event"
    },
    {
      "anonymous": false,
      "inputs": [
        {
          "indexed": true,
          "internalType": "address",
          "name": "winner",
          "type": "address"
        },
        {
          "indexed": false,
          "internalType": "uint256",
          "name": "amount",
          "type": "uint256"
        }
      ],
      "name": "PrizeClaimed",
      "type": "event"
    },
    {
      "anonymous": false,
      "inputs": [
        {
          "indexed": false,
          "internalType": "uint256",
          "name": "amount",
          "type": "uint256"
        },
        {
          "indexed": false,
          "internalType": "uint256",
          "name": "newTotal",
          "type": "uint256"
        }
      ],
      "name": "ShortfallFunded",
      "type": "event"
    },
    {
      "anonymous": false,
      "inputs": [
        {
          "indexed": true,
          "internalType": "address",
          "name": "buyer",
          "type": "address"
        },
        {
          "indexed": false,
          "internalType": "uint256",
          "name": "amount",
          "type": "uint256"
        },
        {
          "indexed": false,
          "internalType": "uint256",
          "name": "cost",
          "type": "uint256"
        }
      ],
      "name": "TicketPurchased",
      "type": "event"
    },
    {
      "anonymous": false,
      "inputs": [
        {
          "indexed": false,
          "internalType": "address",
          "name": "account",
          "type": "address"
        }
      ],
      "name": "Unpaused",
      "type": "event"
    },
    {
      "anonymous": false,
      "inputs": [
        {
          "indexed": false,
          "internalType": "address[]",
          "name": "winners",
          "type": "address[]"
        },
        {
          "indexed": false,
          "internalType": "uint256[]",
          "name": "prizes",
          "type": "uint256[]"
        }
      ],
      "name": "WinnersSelected",
      "type": "event"
    },
    {
      "inputs": [],
      "name": "MAX_TICKETS_PER_PURCHASE",
      "outputs": [
        {
          "internalType": "uint256",
          "name": "",
          "type": "uint256"
        }
      ],
      "stateMutability": "view",
      "type": "function"
    },
    {
      "inputs": [],
      "name": "NUM_WINNERS",
      "outputs": [
        {
          "internalType": "uint256",
          "name": "",
          "type": "uint256"
        }
      ],
      "stateMutability": "view",
      "type": "function"
    },
    {
      "inputs": [],
      "name": "PRIZE_PERCENTAGE",
      "outputs": [
        {
          "internalType": "uint256",
          "name": "",
          "type": "uint256"
        }
      ],
      "stateMutability": "view",
      "type": "function"
    },
    {
      "inputs": [
        {
          "internalType": "uint256",
          "name": "numberOfTickets",
          "type": "uint256"
        }
      ],
      "name": "buyTickets",
      "outputs": [],
      "stateMutability": "nonpayable",
      "type": "function"
    },
    {
      "inputs": [],
      "name": "claimPrize",
      "outputs": [],
      "stateMutability": "nonpayable",
      "type": "function"
    },
    {
      "inputs": [
        {
          "internalType": "bytes32",
          "name": "randomValue",
          "type": "bytes32"
        },
        {
          "internalType": "bytes32",
          "name": "seed",
          "type": "bytes32"
        },
        {
          "components": [
            {
              "internalType": "uint256[]",
              "name": "indices",
              "type": "uint256[]"
            },
            {
              "internalType": "bytes32[]",
              "name": "seeds",
              "type": "bytes32[]"
            },
            {
              "internalType": "address[]",
              "name": "winners",
              "type": "address[]"
            }
          ],
          "internalType": "struct IRaffleVRF.SelectionResult",
          "name": "result",
          "type": "tuple"
        }
      ],
      "name": "completeWinnerSelection",
      "outputs": [],
      "stateMutability": "nonpayable",
      "type": "function"
    },
    {
      "inputs": [],
      "name": "currentCommitmentId",
      "outputs": [
        {
          "internalType": "uint256",
          "name": "",
          "type": "uint256"
        }
      ],
      "stateMutability": "view",
      "type": "function"
    },
    {
      "inputs": [],
      "name": "emergencyWithdraw",
      "outputs": [],
      "stateMutability": "nonpayable",
      "type": "function"
    },
    {
      "inputs": [],
      "name": "fundShortfall",
      "outputs": [],
      "stateMutability": "nonpayable",
      "type": "function"
    },
    {
      "inputs": [],
      "name": "getCurrentPrizePool",
      "outputs": [
        {
          "internalType": "uint256",
          "name": "",
          "type": "uint256"
        }
      ],
      "stateMutability": "view",
      "type": "function"
    },
    {
      "inputs": [],
      "name": "getParticipantCount",
      "outputs": [
        {
          "internalType": "uint256",
          "name": "",
          "type": "uint256"
        }
      ],
      "stateMutability": "view",
      "type": "function"
    },
    {
      "inputs": [],
      "name": "getParticipants",
      "outputs": [
        {
          "internalType": "address[]",
          "name": "",
          "type": "address[]"
        }
      ],
      "stateMutability": "view",
      "type": "function"
    },
    {
      "inputs": [],
      "name": "getTotalTickets",
      "outputs": [
        {
          "internalType": "uint256",
          "name": "",
          "type": "uint256"
        }
      ],
      "stateMutability": "view",
      "type": "function"
    },
    {
      "inputs": [],
      "name": "getWinners",
      "outputs": [
        {
          "internalType": "address[]",
          "name": "",
          "type": "address[]"
        },
        {
          "internalType": "uint256[10]",
          "name": "",
          "type": "uint256[10]"
        }
      ],
      "stateMutability": "view",
      "type": "function"
    },
    {
      "inputs": [],
      "name": "guaranteedPrizePool",
      "outputs": [
        {
          "internalType": "uint256",
          "name": "",
          "type": "uint256"
        }
      ],
      "stateMutability": "view",
      "type": "function"
    },
    {
      "inputs": [
        {
          "internalType": "address",
          "name": "_token",
          "type": "address"
        },
        {
          "internalType": "uint256",
          "name": "_ticketPrice",
          "type": "uint256"
        },
        {
          "internalType": "uint256",
          "name": "_duration",
          "type": "uint256"
        },
        {
          "internalType": "uint256",
          "name": "_guaranteedPrizePool",
          "type": "uint256"
        },
        {
          "internalType": "address",
          "name": "_notifications",
          "type": "address"
        },
        {
          "internalType": "address",
          "name": "_vrf",
          "type": "address"
        },
        {
          "internalType": "address",
          "name": "_owner",
          "type": "address"
        }
      ],
      "name": "initialize",
      "outputs": [],
      "stateMutability": "nonpayable",
      "type": "function"
    },
    {
      "inputs": [
        {
          "internalType": "bytes32",
          "name": "commitmentHash",
          "type": "bytes32"
        },
        {
          "internalType": "bytes",
          "name": "signature",
          "type": "bytes"
        }
      ],
      "name": "initiateWinnerSelection",
      "outputs": [],
      "stateMutability": "nonpayable",
      "type": "function"
    },
    {
      "inputs": [
        {
          "internalType": "address",
          "name": "",
          "type": "address"
        }
      ],
      "name": "isParticipant",
      "outputs": [
        {
          "internalType": "bool",
          "name": "",
          "type": "bool"
        }
      ],
      "stateMutability": "view",
      "type": "function"
    },
    {
      "inputs": [
        {
          "internalType": "address",
          "name": "",
          "type": "address"
        }
      ],
      "name": "isWinner",
      "outputs": [
        {
          "internalType": "bool",
          "name": "",
          "type": "bool"
        }
      ],
      "stateMutability": "view",
      "type": "function"
    },
    {
      "inputs": [],
      "name": "notifications",
      "outputs": [
        {
          "internalType": "contract IRaffleNotifications",
          "name": "",
          "type": "address"
        }
      ],
      "stateMutability": "view",
      "type": "function"
    },
    {
      "inputs": [],
      "name": "owner",
      "outputs": [
        {
          "internalType": "address",
          "name": "",
          "type": "address"
        }
      ],
      "stateMutability": "view",
      "type": "function"
    },
    {
      "inputs": [
        {
          "internalType": "uint256",
          "name": "",
          "type": "uint256"
        }
      ],
      "name": "participants",
      "outputs": [
        {
          "internalType": "address",
          "name": "",
          "type": "address"
        }
      ],
      "stateMutability": "view",
      "type": "function"
    },
    {
      "inputs": [],
      "name": "pause",
      "outputs": [],
      "stateMutability": "nonpayable",
      "type": "function"
    },
    {
      "inputs": [],
      "name": "paused",
      "outputs": [
        {
          "internalType": "bool",
          "name": "",
          "type": "bool"
        }
      ],
      "stateMutability": "view",
      "type": "function"
    },
    {
      "inputs": [],
      "name": "raffleEndTime",
      "outputs": [
        {
          "internalType": "uint256",
          "name": "",
          "type": "uint256"
        }
      ],
      "stateMutability": "view",
      "type": "function"
    },
    {
      "inputs": [],
      "name": "raffleEnded",
      "outputs": [
        {
          "internalType": "bool",
          "name": "",
          "type": "bool"
        }
      ],
      "stateMutability": "view",
      "type": "function"
    },
    {
      "inputs": [],
      "name": "renounceOwnership",
      "outputs": [],
      "stateMutability": "nonpayable",
      "type": "function"
    },
    {
      "inputs": [
        {
          "internalType": "uint256",
          "name": "",
          "type": "uint256"
        }
      ],
      "name": "ticketOwners",
      "outputs": [
        {
          "internalType": "address",
          "name": "",
          "type": "address"
        }
      ],
      "stateMutability": "view",
      "type": "function"
    },
    {
      "inputs": [],
      "name": "ticketPrice",
      "outputs": [
        {
          "internalType": "uint256",
          "name": "",
          "type": "uint256"
        }
      ],
      "stateMutability": "view",
      "type": "function"
    },
    {
      "inputs": [
        {
          "internalType": "address",
          "name": "",
          "type": "address"
        }
      ],
      "name": "ticketsBought",
      "outputs": [
        {
          "internalType": "uint256",
          "name": "",
          "type": "uint256"
        }
      ],
      "stateMutability": "view",
      "type": "function"
    },
    {
      "inputs": [],
      "name": "token",
      "outputs": [
        {
          "internalType": "contract IERC20",
          "name": "",
          "type": "address"
        }
      ],
      "stateMutability": "view",
      "type": "function"
    },
    {
      "inputs": [],
      "name": "totalContributions",
      "outputs": [
        {
          "internalType": "uint256",
          "name": "",
          "type": "uint256"
        }
      ],
      "stateMutability": "view",
      "type": "function"
    },
    {
      "inputs": [],
      "name": "totalTickets",
      "outputs": [
        {
          "internalType": "uint256",
          "name": "",
          "type": "uint256"
        }
      ],
      "stateMutability": "view",
      "type": "function"
    },
    {
      "inputs": [
        {
          "internalType": "address",
          "name": "newOwner",
          "type": "address"
        }
      ],
      "name": "transferOwnership",
      "outputs": [],
      "stateMutability": "nonpayable",
      "type": "function"
    },
    {
      "inputs": [],
      "name": "unpause",
      "outputs": [],
      "stateMutability": "nonpayable",
      "type": "function"
    },
    {
      "inputs": [],
      "name": "vrf",
      "outputs": [
        {
          "internalType": "contract IRaffleVRF",
          "name": "",
          "type": "address"
        }
      ],
      "stateMutability": "view",
      "type": "function"
    },
    {
      "inputs": [
        {
          "internalType": "address",
          "name": "",
          "type": "address"
        }
      ],
      "name": "winnerPrizes",
      "outputs": [
        {
          "internalType": "uint256",
          "name": "",
          "type": "uint256"
        }
      ],
      "stateMutability": "view",
      "type": "function"
    },
    {
      "inputs": [],
      "name": "winnerSelectionInProgress",
      "outputs": [
        {
          "internalType": "bool",
          "name": "",
          "type": "bool"
        }
      ],
      "stateMutability": "view",
      "type": "function"
    },
    {
      "inputs": [
        {
          "internalType": "uint256",
          "name": "",
          "type": "uint256"
        }
      ],
      "name": "winners",
      "outputs": [
        {
          "internalType": "address",
          "name": "",
          "type": "address"
        }
      ],
      "stateMutability": "view",
      "type": "function"
    }
  ],
  "bytecode": "0x6080604052348015600f57600080fd5b5060016000819055805460ff191690553380604457604051631e4fbdf760e01b81526000600482015260240160405180910390fd5b604b816050565b5060aa565b600180546001600160a01b03838116610100818102610100600160a81b031985161790945560405193909204169182907f8be0079c531659141344cd1fd0a4f28419497f9722a3daafe3b4186f6b6457e090600090a35050565b611f6c806100b96000396000f3fe608060405234801561001057600080fd5b506004361061023d5760003560e01c8063715018a61161013b578063a2fb1175116100b8578063dd15d6ef1161007c578063dd15d6ef1461045f578063df15c37e1461047f578063eb2dbcf614610495578063f2fde38b146104be578063fc0c546a146104d157600080fd5b8063a2fb11751461042b578063ad6057291461043e578063cad0338c14610446578063db2e21bc1461044e578063dd11247e1461045657600080fd5b8063888f232c116100ff578063888f232c146103a95780638da5cb5b146103bc578063929066f5146103d257806393c904d2146103f55780639d9ca28d1461040857600080fd5b8063715018a61461035e57806374b064aa1461036657806379f67a2f1461036e5780638456cb591461038157806384bd32641461038957600080fd5b806337c08923116101c95780635aa68ac01161018d5780635aa68ac0146103215780635c975abb146103365780635f6f0e63146103415780636b762daa1461034957806370740ac91461035657600080fd5b806337c08923146102d85780633aa919db146102e15780633f4ba83a146102fe57806349bc779b1461030657806355e93ede1461031957600080fd5b8063204eaf1e11610210578063204eaf1e1461029657806320e3a2611461029f5780632f366637146102a957806335afea91146102bc57806335c1d349146102c557600080fd5b806306e8337f146102425780630c949043146102595780631209b1f61461028457806318a32e701461028d575b600080fd5b600d545b6040519081526020015b60405180910390f35b60045461026c906001600160a01b031681565b6040516001600160a01b039091168152602001610250565b61024660055481565b61024660065481565b610246601c5481565b6102a76104e4565b005b6102a76102b736600461194e565b61065a565b61024660075481565b61026c6102d336600461194e565b610956565b610246600e5481565b601d546102ee9060ff1681565b6040519015158152602001610250565b6102a7610980565b6102a7610314366004611983565b610992565b610246610c75565b610329610cae565b6040516102509190611a39565b60015460ff166102ee565b610246606481565b6008546102ee9060ff1681565b6102a7610d10565b6102a7610eed565b610246602881565b6102a761037c366004611a69565b610eff565b6102a76110a5565b610246610397366004611b2c565b60096020526000908152604090205481565b60035461026c906001600160a01b031681565b60015461010090046001600160a01b031661026c565b6102ee6103e0366004611b2c565b600b6020526000908152604090205460ff1681565b6102a7610403366004611b47565b6110b5565b6102ee610416366004611b2c565b60116020526000908152604090205460ff1681565b61026c61043936600461194e565b6114b6565b600c54610246565b610246600a81565b6102a76114c6565b610246600d5481565b61024661046d366004611b2c565b60106020526000908152604090205481565b610487611618565b604051610250929190611b9e565b61026c6104a336600461194e565b600a602052600090815260409020546001600160a01b031681565b6102a76104cc366004611b2c565b611711565b60025461026c906001600160a01b031681565b6104ec61174c565b6104f461177f565b60085460ff1661051757604051633a53ae3b60e21b815260040160405180910390fd5b600060646028600e5461052a9190611bfc565b6105349190611c19565b9050600754811061055857604051630368bbc760e01b815260040160405180910390fd5b6000816007546105689190611c3b565b905080600e600082825461057c9190611c4e565b90915550506002546040516323b872dd60e01b8152336004820152306024820152604481018390526001600160a01b03909116906323b872dd906064016020604051808303816000875af11580156105d8573d6000803e3d6000fd5b505050506040513d601f19601f820116820180604052508101906105fc9190611c61565b610619576040516312171d8360e31b815260040160405180910390fd5b600e546040805183815260208101929092527f33350d3c1bbc9b021f798572a01b47d659f61f51d21316f434bb916d0397b61e910160405180910390a15050565b6106626117a3565b61066a61177f565b60085460ff161561068e5760405163502fd88d60e01b815260040160405180910390fd5b60065442106106b05760405163502fd88d60e01b815260040160405180910390fd5b8015806106bd5750606481115b156106da5760405162fab39f60e31b815260040160405180910390fd5b6000816005546106ea9190611bfc565b6002546040516323b872dd60e01b8152336004820152306024820152604481018390529192506001600160a01b0316906323b872dd906064016020604051808303816000875af1158015610742573d6000803e3d6000fd5b505050506040513d601f19601f820116820180604052508101906107669190611c61565b610783576040516312171d8360e31b815260040160405180910390fd5b336000908152600b602052604090205460ff166107f757336000818152600b60205260408120805460ff19166001908117909155600c805491820181559091527fdf6966c971051c3d54ec59162606531493a51404a002842f56009d7e5cf4a8c70180546001600160a01b03191690911790555b600d5460005b8381101561084a5733600a60006108148486611c4e565b8152602081019190915260400160002080546001600160a01b0319166001600160a01b03929092169190911790556001016107fd565b50336000908152600960205260408120805485929061086a908490611c4e565b9250508190555082600d60008282546108839190611c4e565b9250508190555081600e600082825461089c9190611c4e565b9091555050600354604051631acd729760e31b815233600482015260248101859052604481018490526001600160a01b039091169063d66b94b890606401600060405180830381600087803b1580156108f457600080fd5b505af1158015610908573d6000803e3d6000fd5b505060408051868152602081018690523393507f2a91574e12ad96234e84923e146b0946ecfb871cd8d5534dc1fdcbe87a7c01b392500160405180910390a250506109536001600055565b50565b600c818154811061096657600080fd5b6000918252602090912001546001600160a01b0316905081565b61098861174c565b6109906117cd565b565b600854610100900460ff16156109ba5760405162dc149f60e41b815260040160405180910390fd5b6001600160a01b038716610a055760405162461bcd60e51b815260206004820152600d60248201526c24b73b30b634b2103a37b5b2b760991b60448201526064015b60405180910390fd5b60008611610a455760405162461bcd60e51b815260206004820152600d60248201526c496e76616c696420707269636560981b60448201526064016109fc565b60008511610a885760405162461bcd60e51b815260206004820152601060248201526f24b73b30b634b210323ab930ba34b7b760811b60448201526064016109fc565b60008411610ac75760405162461bcd60e51b815260206004820152600c60248201526b125b9d985b1a59081c1bdbdb60a21b60448201526064016109fc565b6001600160a01b038316610b155760405162461bcd60e51b8152602060048201526015602482015274496e76616c6964206e6f74696669636174696f6e7360581b60448201526064016109fc565b6001600160a01b038216610b595760405162461bcd60e51b815260206004820152600b60248201526a24b73b30b634b2102b292360a91b60448201526064016109fc565b6001600160a01b038116610b9f5760405162461bcd60e51b815260206004820152600d60248201526c24b73b30b634b21037bbb732b960991b60448201526064016109fc565b600280546001600160a01b03808a166001600160a01b0319928316179092556003805486841690831617905560048054928516929091169190911790556005869055610beb8542611c4e565b6006556007849055610bfc8161181f565b60408051610140810182526019815260146020820152600f91810191909152600a6060820181905260086080830152600760a0830152600660c0830152600460e083015260036101008301526002610120830152610c5c916012916118d7565b50506008805461ff001916610100179055505050505050565b60008060646028600e54610c899190611bfc565b610c939190611c19565b90506007548110610ca45780610ca8565b6007545b91505090565b6060600c805480602002602001604051908101604052809291908181526020018280548015610d0657602002820191906000526020600020905b81546001600160a01b03168152600190910190602001808311610ce8575b5050505050905090565b610d186117a3565b610d2061177f565b60085460ff16610d4357604051633a53ae3b60e21b815260040160405180910390fd5b3360009081526011602052604090205460ff16610d73576040516330c6392160e11b815260040160405180910390fd5b3360009081526010602052604081205490819003610da45760405163611ab18960e11b815260040160405180910390fd5b3360008181526010602052604080822091909155600254905163a9059cbb60e01b81526004810192909252602482018390526001600160a01b03169063a9059cbb906044016020604051808303816000875af1158015610e08573d6000803e3d6000fd5b505050506040513d601f19601f82011682018060405250810190610e2c9190611c61565b610e49576040516312171d8360e31b815260040160405180910390fd5b600354604051637b26e91d60e11b8152336004820152602481018390526001600160a01b039091169063f64dd23a90604401600060405180830381600087803b158015610e9557600080fd5b505af1158015610ea9573d6000803e3d6000fd5b50506040518381523392507f95681e512bc0fe659e195e06c283eada494316f3d801213e48e7101af92bf770915060200160405180910390a2506109906001600055565b610ef561174c565b610990600061181f565b610f0761174c565b610f0f61177f565b600654421015610f3257604051633a53ae3b60e21b815260040160405180910390fd5b60085460ff1615610f565760405163502fd88d60e01b815260040160405180910390fd5b600a600d541080610f695750600c54600a115b15610f8757604051637e439aed60e01b815260040160405180910390fd5b601d5460ff1615610fab5760405163507ed9c960e11b815260040160405180910390fd5b600060646028600e54610fbe9190611bfc565b610fc89190611c19565b905060075481101561101c5760405162461bcd60e51b815260206004820152601760248201527f496e73756666696369656e74207072697a6520706f6f6c00000000000000000060448201526064016109fc565b601d805460ff19166001179055600480546040516380bb0e2560e01b81526001600160a01b03909116916380bb0e259161105a918791879101611c83565b6020604051808303816000875af1158015611079573d6000803e3d6000fd5b505050506040513d601f19601f8201168201806040525081019061109d9190611cd8565b601c55505050565b6110ad61174c565b610990611879565b6110bd61174c565b6110c561177f565b601d5460ff166110e857604051633a53ae3b60e21b815260040160405180910390fd5b60048054601c5460405163bcc63c6960e01b81529283015260248201859052604482018490526001600160a01b03169063bcc63c6990606401600060405180830381600087803b15801561113b57600080fd5b505af115801561114f573d6000803e3d6000fd5b505060048054601c54600d54604051631a3fee2160e21b81526001600160a01b0390931695506368ffb884945061118c9391929091879101611d73565b6020604051808303816000875af11580156111ab573d6000803e3d6000fd5b505050506040513d601f19601f820116820180604052508101906111cf9190611c61565b61120f5760405162461bcd60e51b815260206004820152601160248201527024b73b30b634b21039b2b632b1ba34b7b760791b60448201526064016109fc565b6008805460ff19908116600117909155601d8054909116905560408051600a808252610160820190925260009160208201610140803683370190505090506000611257610c75565b905060005b600a81101561138d5760006112746040860186611e2f565b8381811061128457611284611e79565b90506020020160208101906112999190611b2c565b90506064601283600a81106112b0576112b0611e79565b01546112bc9085611bfc565b6112c69190611c19565b8483815181106112d8576112d8611e79565b602090810291909101810191909152600f805460018082019092557f8d1108e10bcb7c27dddfc02ed9d693a074039d026cf4ea4240b40f7d581ac8020180546001600160a01b0319166001600160a01b038516908117909155600090815260119092526040909120805460ff19169091179055835184908390811061135f5761135f611e79565b6020908102919091018101516001600160a01b0390921660009081526010909152604090205560010161125c565b50600354600c54600d546001600160a01b039092169163c32868c491906113b2610c75565b6040516001600160e01b031960e086901b168152600481019390935260248301919091526044820152606401600060405180830381600087803b1580156113f857600080fd5b505af115801561140c573d6000803e3d6000fd5b505060035460405163e7d534a360e01b81526001600160a01b03909116925063e7d534a3915061144390600f908690600401611e8f565b600060405180830381600087803b15801561145d57600080fd5b505af1158015611471573d6000803e3d6000fd5b505050507fae7f116cfcc00d37db3af483a70d32b60c3f692441110643896c1f174eec0f9e600f836040516114a7929190611e8f565b60405180910390a15050505050565b600f818154811061096657600080fd5b6114ce61174c565b60085460ff166114f157604051633a53ae3b60e21b815260040160405180910390fd5b6002546040516370a0823160e01b81523060048201526000916001600160a01b0316906370a0823190602401602060405180830381865afa15801561153a573d6000803e3d6000fd5b505050506040513d601f19601f8201168201806040525081019061155e9190611cd8565b6002549091506001600160a01b031663a9059cbb61158a6001546001600160a01b036101009091041690565b6040516001600160e01b031960e084901b1681526001600160a01b039091166004820152602481018490526044016020604051808303816000875af11580156115d7573d6000803e3d6000fd5b505050506040513d601f19601f820116820180604052508101906115fb9190611c61565b610953576040516312171d8360e31b815260040160405180910390fd5b606061162261191a565b61162a61191a565b60005b600a8110801561163e5750600f5481105b156116a85760106000600f838154811061165a5761165a611e79565b60009182526020808320909101546001600160a01b031683528201929092526040019020548282600a811061169157611691611e79565b6020020152806116a081611f1d565b91505061162d565b50600f818180548060200260200160405190810160405280929190818152602001828054801561170157602002820191906000526020600020905b81546001600160a01b031681526001909101906020018083116116e3575b5050505050915092509250509091565b61171961174c565b6001600160a01b03811661174357604051631e4fbdf760e01b8152600060048201526024016109fc565b6109538161181f565b6001546001600160a01b036101009091041633146109905760405163118cdaa760e01b81523360048201526024016109fc565b60015460ff16156109905760405163d93c066560e01b815260040160405180910390fd5b6002600054036117c657604051633ee5aeb560e01b815260040160405180910390fd5b6002600055565b6117d56118b4565b6001805460ff191690557f5db9ee0a495bf2e6ff9c91a7834c1ba4fdd244a5e8aa4e537bd38aeae4b073aa335b6040516001600160a01b03909116815260200160405180910390a1565b600180546001600160a01b03838116610100818102610100600160a81b031985161790945560405193909204169182907f8be0079c531659141344cd1fd0a4f28419497f9722a3daafe3b4186f6b6457e090600090a35050565b61188161177f565b6001805460ff1916811790557f62e78cea01bee320cd4e420270b5ea74000d11b0c9f74754ebdbfc544b05a25833611802565b60015460ff1661099057604051638dfc202b60e01b815260040160405180910390fd5b82600a810192821561190a579160200282015b8281111561190a578251829060ff169055916020019190600101906118ea565b50611916929150611939565b5090565b604051806101400160405280600a906020820280368337509192915050565b5b80821115611916576000815560010161193a565b60006020828403121561196057600080fd5b5035919050565b80356001600160a01b038116811461197e57600080fd5b919050565b600080600080600080600060e0888a03121561199e57600080fd5b6119a788611967565b96506020880135955060408801359450606088013593506119ca60808901611967565b92506119d860a08901611967565b91506119e660c08901611967565b905092959891949750929550565b600081518084526020840193506020830160005b82811015611a2f5781516001600160a01b0316865260209586019590910190600101611a08565b5093949350505050565b602081526000611a4c60208301846119f4565b9392505050565b634e487b7160e01b600052604160045260246000fd5b60008060408385031215611a7c57600080fd5b82359150602083013567ffffffffffffffff811115611a9a57600080fd5b8301601f81018513611aab57600080fd5b803567ffffffffffffffff811115611ac557611ac5611a53565b604051601f8201601f19908116603f0116810167ffffffffffffffff81118282101715611af457611af4611a53565b604052818152828201602001871015611b0c57600080fd5b816020840160208301376000602083830101528093505050509250929050565b600060208284031215611b3e57600080fd5b611a4c82611967565b600080600060608486031215611b5c57600080fd5b8335925060208401359150604084013567ffffffffffffffff811115611b8157600080fd5b840160608187031215611b9357600080fd5b809150509250925092565b61016081526000611bb36101608301856119f4565b9050602082018360005b600a811015611bdc578151835260209283019290910190600101611bbd565b5050509392505050565b634e487b7160e01b600052601160045260246000fd5b8082028115828204841417611c1357611c13611be6565b92915050565b600082611c3657634e487b7160e01b600052601260045260246000fd5b500490565b81810381811115611c1357611c13611be6565b80820180821115611c1357611c13611be6565b600060208284031215611c7357600080fd5b81518015158114611a4c57600080fd5b828152604060208201526000825180604084015260005b81811015611cb75760208186018101516060868401015201611c9a565b506000606082850101526060601f19601f8301168401019150509392505050565b600060208284031215611cea57600080fd5b5051919050565b6000808335601e19843603018112611d0857600080fd5b830160208101925035905067ffffffffffffffff811115611d2857600080fd5b8060051b3603821315611d3a57600080fd5b9250929050565b81835260006001600160fb1b03831115611d5a57600080fd5b8260051b80836020870137939093016020019392505050565b838152826020820152606060408201526000611d8f8384611cf1565b606080850152611da360c085018284611d41565b915050611db36020850185611cf1565b848303605f19016080860152611dca838284611d41565b92505050611ddb6040850185611cf1565b848303605f190160a08601528083529091600091906020015b81831015611e23576001600160a01b03611e0d85611967565b1681526020938401936001939093019201611df4565b98975050505050505050565b6000808335601e19843603018112611e4657600080fd5b83018035915067ffffffffffffffff821115611e6157600080fd5b6020019150600581901b3603821315611d3a57600080fd5b634e487b7160e01b600052603260045260246000fd5b6040808252835490820181905260008481526020812090916060840190835b81811015611ed55783546001600160a01b0316835260019384019360209093019201611eae565b50508381036020808601919091528551808352918101925085019060005b81811015611f11578251845260209384019390920191600101611ef3565b50919695505050505050565b600060018201611f2f57611f2f611be6565b506001019056fea2646970667358221220e2d61d134bad0f2f4bf4586a55b4b18c0b89266e11e62816329c7c0f1183f9c364736f6c634300081b0033",
  "linkReferences": {},
  "deployedLinkReferences": {}
}