{
  "_format": "hh-sol-artifact-1",
  "contractName": "Raffle",
  "sourceName": "contracts/Raffle.sol",
  "abi": [
    {
      "inputs": [],
      "stateMutability": "nonpayable",
      "type": "constructor"
    },
    {
      "inputs": [],
      "name": "EnforcedPause",
      "type": "error"
    },
    {
      "inputs": [],
      "name": "ExpectedPause",
      "type": "error"
    },
    {
      "inputs": [],
      "name": "InvalidInitialization",
      "type": "error"
    },
    {
      "inputs": [],
      "name": "NotInitializing",
      "type": "error"
    },
    {
      "inputs": [
        {
          "internalType": "address",
          "name": "owner",
          "type": "address"
        }
      ],
      "name": "OwnableInvalidOwner",
      "type": "error"
    },
    {
      "inputs": [
        {
          "internalType": "address",
          "name": "account",
          "type": "address"
        }
      ],
      "name": "OwnableUnauthorizedAccount",
      "type": "error"
    },
    {
      "inputs": [],
      "name": "ReentrancyGuardReentrantCall",
      "type": "error"
    },
    {
      "anonymous": false,
      "inputs": [
        {
          "indexed": true,
          "internalType": "bytes32",
          "name": "commitHash",
          "type": "bytes32"
        },
        {
          "indexed": false,
          "internalType": "uint256",
          "name": "revealDeadline",
          "type": "uint256"
        }
      ],
      "name": "CommitSubmitted",
      "type": "event"
    },
    {
      "anonymous": false,
      "inputs": [
        {
          "indexed": true,
          "internalType": "address",
          "name": "participant",
          "type": "address"
        },
        {
          "indexed": false,
          "internalType": "uint256",
          "name": "amount",
          "type": "uint256"
        },
        {
          "indexed": false,
          "internalType": "uint256",
          "name": "timestamp",
          "type": "uint256"
        }
      ],
      "name": "ContributionRefunded",
      "type": "event"
    },
    {
      "anonymous": false,
      "inputs": [
        {
          "indexed": false,
          "internalType": "uint256",
          "name": "oldAmount",
          "type": "uint256"
        },
        {
          "indexed": false,
          "internalType": "uint256",
          "name": "newAmount",
          "type": "uint256"
        }
      ],
      "name": "GuaranteedPrizePoolUpdated",
      "type": "event"
    },
    {
      "anonymous": false,
      "inputs": [
        {
          "indexed": false,
          "internalType": "uint64",
          "name": "version",
          "type": "uint64"
        }
      ],
      "name": "Initialized",
      "type": "event"
    },
    {
      "anonymous": false,
      "inputs": [
        {
          "indexed": true,
          "internalType": "address",
          "name": "previousOwner",
          "type": "address"
        },
        {
          "indexed": true,
          "internalType": "address",
          "name": "newOwner",
          "type": "address"
        }
      ],
      "name": "OwnershipTransferred",
      "type": "event"
    },
    {
      "anonymous": false,
      "inputs": [
        {
          "indexed": false,
          "internalType": "address",
          "name": "account",
          "type": "address"
        }
      ],
      "name": "Paused",
      "type": "event"
    },
    {
      "anonymous": false,
      "inputs": [
        {
          "indexed": true,
          "internalType": "address",
          "name": "winner",
          "type": "address"
        },
        {
          "indexed": false,
          "internalType": "uint256",
          "name": "amount",
          "type": "uint256"
        },
        {
          "indexed": false,
          "internalType": "uint256",
          "name": "timestamp",
          "type": "uint256"
        }
      ],
      "name": "PrizeClaimed",
      "type": "event"
    },
    {
      "anonymous": false,
      "inputs": [
        {
          "indexed": false,
          "internalType": "string",
          "name": "reason",
          "type": "string"
        }
      ],
      "name": "RaffleInvalid",
      "type": "event"
    },
    {
      "anonymous": false,
      "inputs": [
        {
          "indexed": false,
          "internalType": "uint256",
          "name": "randomSeed",
          "type": "uint256"
        },
        {
          "indexed": false,
          "internalType": "uint256",
          "name": "timestamp",
          "type": "uint256"
        }
      ],
      "name": "RandomnessRevealed",
      "type": "event"
    },
    {
      "anonymous": false,
      "inputs": [
        {
          "indexed": false,
          "internalType": "uint256",
          "name": "amount",
          "type": "uint256"
        },
        {
          "indexed": false,
          "internalType": "uint256",
          "name": "newTotal",
          "type": "uint256"
        },
        {
          "indexed": false,
          "internalType": "uint256",
          "name": "timestamp",
          "type": "uint256"
        }
      ],
      "name": "ShortfallFunded",
      "type": "event"
    },
    {
      "anonymous": false,
      "inputs": [
        {
          "indexed": true,
          "internalType": "address",
          "name": "participant",
          "type": "address"
        },
        {
          "indexed": false,
          "internalType": "uint256",
          "name": "numberOfTickets",
          "type": "uint256"
        },
        {
          "indexed": false,
          "internalType": "uint256",
          "name": "totalCost",
          "type": "uint256"
        },
        {
          "indexed": false,
          "internalType": "uint256",
          "name": "ticketPrice",
          "type": "uint256"
        },
        {
          "indexed": false,
          "internalType": "uint256",
          "name": "timestamp",
          "type": "uint256"
        }
      ],
      "name": "TicketPurchased",
      "type": "event"
    },
    {
      "anonymous": false,
      "inputs": [
        {
          "indexed": false,
          "internalType": "address",
          "name": "account",
          "type": "address"
        }
      ],
      "name": "Unpaused",
      "type": "event"
    },
    {
      "anonymous": false,
      "inputs": [
        {
          "indexed": false,
          "internalType": "address[]",
          "name": "winners",
          "type": "address[]"
        },
        {
          "indexed": false,
          "internalType": "address[]",
          "name": "runnersUp",
          "type": "address[]"
        },
        {
          "indexed": false,
          "internalType": "uint256[]",
          "name": "prizes",
          "type": "uint256[]"
        },
        {
          "indexed": false,
          "internalType": "uint256",
          "name": "timestamp",
          "type": "uint256"
        }
      ],
      "name": "WinnersSelected",
      "type": "event"
    },
    {
      "inputs": [],
      "name": "MAX_TICKETS_PER_PURCHASE",
      "outputs": [
        {
          "internalType": "uint256",
          "name": "",
          "type": "uint256"
        }
      ],
      "stateMutability": "view",
      "type": "function"
    },
    {
      "inputs": [],
      "name": "MIN_COMMITMENT_AGE",
      "outputs": [
        {
          "internalType": "uint256",
          "name": "",
          "type": "uint256"
        }
      ],
      "stateMutability": "view",
      "type": "function"
    },
    {
      "inputs": [],
      "name": "MIN_PARTICIPANTS",
      "outputs": [
        {
          "internalType": "uint256",
          "name": "",
          "type": "uint256"
        }
      ],
      "stateMutability": "view",
      "type": "function"
    },
    {
      "inputs": [],
      "name": "NUM_RUNNERS_UP",
      "outputs": [
        {
          "internalType": "uint256",
          "name": "",
          "type": "uint256"
        }
      ],
      "stateMutability": "view",
      "type": "function"
    },
    {
      "inputs": [],
      "name": "NUM_WINNERS",
      "outputs": [
        {
          "internalType": "uint256",
          "name": "",
          "type": "uint256"
        }
      ],
      "stateMutability": "view",
      "type": "function"
    },
    {
      "inputs": [],
      "name": "PRIZE_PERCENTAGE",
      "outputs": [
        {
          "internalType": "uint256",
          "name": "",
          "type": "uint256"
        }
      ],
      "stateMutability": "view",
      "type": "function"
    },
    {
      "inputs": [],
      "name": "REVEAL_WINDOW",
      "outputs": [
        {
          "internalType": "uint256",
          "name": "",
          "type": "uint256"
        }
      ],
      "stateMutability": "view",
      "type": "function"
    },
    {
      "inputs": [
        {
          "internalType": "uint256",
          "name": "numberOfTickets",
          "type": "uint256"
        }
      ],
      "name": "buyTickets",
      "outputs": [],
      "stateMutability": "nonpayable",
      "type": "function"
    },
    {
      "inputs": [],
      "name": "claimContribution",
      "outputs": [],
      "stateMutability": "nonpayable",
      "type": "function"
    },
    {
      "inputs": [],
      "name": "claimPrize",
      "outputs": [],
      "stateMutability": "nonpayable",
      "type": "function"
    },
    {
      "inputs": [],
      "name": "commitHash",
      "outputs": [
        {
          "internalType": "bytes32",
          "name": "",
          "type": "bytes32"
        }
      ],
      "stateMutability": "view",
      "type": "function"
    },
    {
      "inputs": [],
      "name": "commitSubmitted",
      "outputs": [
        {
          "internalType": "bool",
          "name": "",
          "type": "bool"
        }
      ],
      "stateMutability": "view",
      "type": "function"
    },
    {
      "inputs": [],
      "name": "commitmentTimestamp",
      "outputs": [
        {
          "internalType": "uint256",
          "name": "",
          "type": "uint256"
        }
      ],
      "stateMutability": "view",
      "type": "function"
    },
    {
      "inputs": [],
      "name": "drawingComplete",
      "outputs": [
        {
          "internalType": "bool",
          "name": "",
          "type": "bool"
        }
      ],
      "stateMutability": "view",
      "type": "function"
    },
    {
      "inputs": [],
      "name": "emergencyWithdraw",
      "outputs": [],
      "stateMutability": "nonpayable",
      "type": "function"
    },
    {
      "inputs": [],
      "name": "endRaffle",
      "outputs": [],
      "stateMutability": "nonpayable",
      "type": "function"
    },
    {
      "inputs": [],
      "name": "fallbackDraw",
      "outputs": [],
      "stateMutability": "nonpayable",
      "type": "function"
    },
    {
      "inputs": [],
      "name": "fundShortfall",
      "outputs": [],
      "stateMutability": "nonpayable",
      "type": "function"
    },
    {
      "inputs": [],
      "name": "getCurrentPrizePool",
      "outputs": [
        {
          "internalType": "uint256",
          "name": "",
          "type": "uint256"
        }
      ],
      "stateMutability": "view",
      "type": "function"
    },
    {
      "inputs": [
        {
          "internalType": "address",
          "name": "participant",
          "type": "address"
        }
      ],
      "name": "getParticipantInfo",
      "outputs": [
        {
          "internalType": "uint256",
          "name": "tickets",
          "type": "uint256"
        },
        {
          "internalType": "uint256",
          "name": "contributions",
          "type": "uint256"
        },
        {
          "internalType": "uint256",
          "name": "winningAmount",
          "type": "uint256"
        },
        {
          "internalType": "bool",
          "name": "isParticipating",
          "type": "bool"
        },
        {
          "internalType": "bool",
          "name": "hasWon",
          "type": "bool"
        },
        {
          "internalType": "bool",
          "name": "isRunnerUpStatus",
          "type": "bool"
        }
      ],
      "stateMutability": "view",
      "type": "function"
    },
    {
      "inputs": [],
      "name": "getRaffleInfo",
      "outputs": [
        {
          "internalType": "string",
          "name": "status",
          "type": "string"
        },
        {
          "internalType": "uint256",
          "name": "currentPrize",
          "type": "uint256"
        },
        {
          "internalType": "uint256",
          "name": "timeRemaining",
          "type": "uint256"
        },
        {
          "internalType": "uint256",
          "name": "totalParticipants",
          "type": "uint256"
        },
        {
          "internalType": "bool",
          "name": "canUseFallback",
          "type": "bool"
        }
      ],
      "stateMutability": "view",
      "type": "function"
    },
    {
      "inputs": [],
      "name": "getRandomnessStatus",
      "outputs": [
        {
          "internalType": "bool",
          "name": "hasCommitment",
          "type": "bool"
        },
        {
          "internalType": "uint256",
          "name": "commitAge",
          "type": "uint256"
        },
        {
          "internalType": "uint256",
          "name": "revealWindowEnd",
          "type": "uint256"
        },
        {
          "internalType": "bool",
          "name": "isComplete",
          "type": "bool"
        }
      ],
      "stateMutability": "view",
      "type": "function"
    },
    {
      "inputs": [],
      "name": "getRunnersUp",
      "outputs": [
        {
          "internalType": "address[]",
          "name": "",
          "type": "address[]"
        }
      ],
      "stateMutability": "view",
      "type": "function"
    },
    {
      "inputs": [],
      "name": "getTotalParticipants",
      "outputs": [
        {
          "internalType": "uint256",
          "name": "",
          "type": "uint256"
        }
      ],
      "stateMutability": "view",
      "type": "function"
    },
    {
      "inputs": [],
      "name": "getWinners",
      "outputs": [
        {
          "internalType": "address[]",
          "name": "",
          "type": "address[]"
        }
      ],
      "stateMutability": "view",
      "type": "function"
    },
    {
      "inputs": [],
      "name": "guaranteedPrizePool",
      "outputs": [
        {
          "internalType": "uint256",
          "name": "",
          "type": "uint256"
        }
      ],
      "stateMutability": "view",
      "type": "function"
    },
    {
      "inputs": [
        {
          "internalType": "address",
          "name": "_token",
          "type": "address"
        },
        {
          "internalType": "uint256",
          "name": "_ticketPrice",
          "type": "uint256"
        },
        {
          "internalType": "uint256",
          "name": "_duration",
          "type": "uint256"
        },
        {
          "internalType": "uint256",
          "name": "_guaranteedPrizePool",
          "type": "uint256"
        },
        {
          "internalType": "address",
          "name": "_notifications",
          "type": "address"
        },
        {
          "internalType": "address",
          "name": "_owner",
          "type": "address"
        }
      ],
      "name": "initialize",
      "outputs": [],
      "stateMutability": "nonpayable",
      "type": "function"
    },
    {
      "inputs": [],
      "name": "insufficientParticipants",
      "outputs": [
        {
          "internalType": "bool",
          "name": "",
          "type": "bool"
        }
      ],
      "stateMutability": "view",
      "type": "function"
    },
    {
      "inputs": [
        {
          "internalType": "address",
          "name": "",
          "type": "address"
        }
      ],
      "name": "isParticipant",
      "outputs": [
        {
          "internalType": "bool",
          "name": "",
          "type": "bool"
        }
      ],
      "stateMutability": "view",
      "type": "function"
    },
    {
      "inputs": [
        {
          "internalType": "address",
          "name": "",
          "type": "address"
        }
      ],
      "name": "isRunnerUp",
      "outputs": [
        {
          "internalType": "bool",
          "name": "",
          "type": "bool"
        }
      ],
      "stateMutability": "view",
      "type": "function"
    },
    {
      "inputs": [
        {
          "internalType": "address",
          "name": "",
          "type": "address"
        }
      ],
      "name": "isWinner",
      "outputs": [
        {
          "internalType": "bool",
          "name": "",
          "type": "bool"
        }
      ],
      "stateMutability": "view",
      "type": "function"
    },
    {
      "inputs": [],
      "name": "notifications",
      "outputs": [
        {
          "internalType": "contract IRaffleNotifications",
          "name": "",
          "type": "address"
        }
      ],
      "stateMutability": "view",
      "type": "function"
    },
    {
      "inputs": [],
      "name": "owner",
      "outputs": [
        {
          "internalType": "address",
          "name": "",
          "type": "address"
        }
      ],
      "stateMutability": "view",
      "type": "function"
    },
    {
      "inputs": [
        {
          "internalType": "address",
          "name": "",
          "type": "address"
        }
      ],
      "name": "participantContributions",
      "outputs": [
        {
          "internalType": "uint256",
          "name": "",
          "type": "uint256"
        }
      ],
      "stateMutability": "view",
      "type": "function"
    },
    {
      "inputs": [
        {
          "internalType": "address",
          "name": "",
          "type": "address"
        }
      ],
      "name": "participantTickets",
      "outputs": [
        {
          "internalType": "uint256",
          "name": "",
          "type": "uint256"
        }
      ],
      "stateMutability": "view",
      "type": "function"
    },
    {
      "inputs": [],
      "name": "pause",
      "outputs": [],
      "stateMutability": "nonpayable",
      "type": "function"
    },
    {
      "inputs": [],
      "name": "paused",
      "outputs": [
        {
          "internalType": "bool",
          "name": "",
          "type": "bool"
        }
      ],
      "stateMutability": "view",
      "type": "function"
    },
    {
      "inputs": [],
      "name": "raffleEndTime",
      "outputs": [
        {
          "internalType": "uint256",
          "name": "",
          "type": "uint256"
        }
      ],
      "stateMutability": "view",
      "type": "function"
    },
    {
      "inputs": [],
      "name": "raffleEnded",
      "outputs": [
        {
          "internalType": "bool",
          "name": "",
          "type": "bool"
        }
      ],
      "stateMutability": "view",
      "type": "function"
    },
    {
      "inputs": [],
      "name": "randomSeed",
      "outputs": [
        {
          "internalType": "uint256",
          "name": "",
          "type": "uint256"
        }
      ],
      "stateMutability": "view",
      "type": "function"
    },
    {
      "inputs": [],
      "name": "renounceOwnership",
      "outputs": [],
      "stateMutability": "nonpayable",
      "type": "function"
    },
    {
      "inputs": [
        {
          "internalType": "bytes32",
          "name": "secret",
          "type": "bytes32"
        }
      ],
      "name": "revealAndDraw",
      "outputs": [],
      "stateMutability": "nonpayable",
      "type": "function"
    },
    {
      "inputs": [],
      "name": "revealDeadline",
      "outputs": [
        {
          "internalType": "uint256",
          "name": "",
          "type": "uint256"
        }
      ],
      "stateMutability": "view",
      "type": "function"
    },
    {
      "inputs": [
        {
          "internalType": "bytes32",
          "name": "_commitHash",
          "type": "bytes32"
        }
      ],
      "name": "submitCommitment",
      "outputs": [],
      "stateMutability": "nonpayable",
      "type": "function"
    },
    {
      "inputs": [],
      "name": "ticketPrice",
      "outputs": [
        {
          "internalType": "uint256",
          "name": "",
          "type": "uint256"
        }
      ],
      "stateMutability": "view",
      "type": "function"
    },
    {
      "inputs": [
        {
          "internalType": "uint256",
          "name": "",
          "type": "uint256"
        }
      ],
      "name": "ticketToParticipant",
      "outputs": [
        {
          "internalType": "address",
          "name": "",
          "type": "address"
        }
      ],
      "stateMutability": "view",
      "type": "function"
    },
    {
      "inputs": [],
      "name": "token",
      "outputs": [
        {
          "internalType": "contract ERC20Upgradeable",
          "name": "",
          "type": "address"
        }
      ],
      "stateMutability": "view",
      "type": "function"
    },
    {
      "inputs": [],
      "name": "totalContributions",
      "outputs": [
        {
          "internalType": "uint256",
          "name": "",
          "type": "uint256"
        }
      ],
      "stateMutability": "view",
      "type": "function"
    },
    {
      "inputs": [],
      "name": "totalTickets",
      "outputs": [
        {
          "internalType": "uint256",
          "name": "",
          "type": "uint256"
        }
      ],
      "stateMutability": "view",
      "type": "function"
    },
    {
      "inputs": [
        {
          "internalType": "address",
          "name": "newOwner",
          "type": "address"
        }
      ],
      "name": "transferOwnership",
      "outputs": [],
      "stateMutability": "nonpayable",
      "type": "function"
    },
    {
      "inputs": [],
      "name": "unpause",
      "outputs": [],
      "stateMutability": "nonpayable",
      "type": "function"
    },
    {
      "inputs": [
        {
          "internalType": "uint256",
          "name": "_newGuaranteedPrizePool",
          "type": "uint256"
        }
      ],
      "name": "updateGuaranteedPrizePool",
      "outputs": [],
      "stateMutability": "nonpayable",
      "type": "function"
    },
    {
      "inputs": [
        {
          "internalType": "address",
          "name": "",
          "type": "address"
        }
      ],
      "name": "winnerPrizes",
      "outputs": [
        {
          "internalType": "uint256",
          "name": "",
          "type": "uint256"
        }
      ],
      "stateMutability": "view",
      "type": "function"
    }
  ],
  "bytecode": "0x6101c0604052600a6080818152600860a052600560c052600460e05260036101008190526101208190526101405260026101605260016101808190526101a05261004c9160189190610119565b5034801561005957600080fd5b50610062610067565b610171565b7ff0c57e16840df040f15088dc2f81fe391c3923bec73e23a9662efc9c229c6a00805468010000000000000000900460ff16156100b75760405163f92ee8a960e01b815260040160405180910390fd5b80546001600160401b03908116146101165780546001600160401b0319166001600160401b0390811782556040519081527fc7f505b2f371ae2175ee4913f4499e1f2633a7b5936321eed1cdaeb6115181d29060200160405180910390a15b50565b82600a810192821561014c579160200282015b8281111561014c578251829060ff1690559160200191906001019061012c565b5061015892915061015c565b5090565b5b80821115610158576000815560010161015d565b612d82806101806000396000f3fe608060405234801561001057600080fd5b50600436106103275760003560e01c806371bdce55116101b8578063b14b28a311610104578063dd15d6ef116100a2578063e7b948c31161007c578063e7b948c3146106ee578063ee095c0e146106f7578063f2fde38b146106ff578063fc0c546a1461071257600080fd5b8063dd15d6ef1461069d578063df15c37e146106bd578063e19989f8146106c557600080fd5b8063bf9fe138116100de578063bf9fe13814610679578063cad0338c146103ea578063db2e21bc1461068c578063dd11247e1461069457600080fd5b8063b14b28a314610649578063b7b435bc14610652578063b89912911461066757600080fd5b80638a7c871e1161017157806395b2658b1161014b57806395b2658b146105f15780639d9ca28d146106115780639ee3f8cc14610634578063a90cc4451461064157600080fd5b80638a7c871e146105a35780638da5cb5b146105c6578063929066f5146105ce57600080fd5b806371bdce55146104ad57806374b064aa146105465780638166f6b21461054e5780638456cb5914610567578063857c1c9a1461056f578063888f232c1461057857600080fd5b80633a984bc5116102775780635f6f0e631161023057806369b947e01161020a57806369b947e0146104645780636b762daa1461049057806370740ac91461049d578063715018a6146104a557600080fd5b80635f6f0e63146104415780635fb1b6411461044957806363b033b41461045157600080fd5b80633a984bc5146103ea5780633b9f8d87146103f25780633f4ba83a146103fa57806353f3eb8f1461040257806355e93ede146104155780635c975abb1461041d57600080fd5b806320e3a261116102e45780632fb72dd3116102be5780632fb72dd3146103b257806335afea91146103c557806336bcc4a9146103ce57806337c08923146103e157600080fd5b806320e3a2611461038e5780632e4f692a146103965780632f3666371461039f57600080fd5b80630114a6901461032c578063061fa2f9146103365780630b747d91146103695780631209b1f61461037257806317e931cf1461037b57806318a32e7014610385575b600080fd5b610334610725565b005b610356610344366004612923565b600c6020526000908152604090205481565b6040519081526020015b60405180910390f35b610356600a5481565b61035660025481565b6103566201518081565b61035660035481565b61033461095d565b610356610e1081565b6103346103ad366004612945565b610b8f565b6103346103c0366004612945565b610f7e565b61035660045481565b6103346103dc366004612945565b611057565b61035660125481565b610356600a81565b610356600581565b610334611299565b610334610410366004612945565b6112a9565b6103566113dc565b600080516020612d0d8339815191525460ff165b6040519015158152602001610360565b610356606481565b610334611415565b6005546104319062010000900460ff1681565b61046c6115bb565b60408051941515855260208501939093529183015215156060820152608001610360565b6005546104319060ff1681565b6103346115ff565b610334611807565b6105136104bb366004612923565b6001600160a01b03166000908152600c6020908152604080832054600d8352818420546015845282852054600f855283862054601386528487205460149096529390952054919590949360ff93841693908116921690565b604080519687526020870195909552938501929092521515606084015215156080830152151560a082015260c001610360565b610356602881565b610556611819565b60405161036095949392919061295e565b6103346119ae565b61035660065481565b60015461058b906001600160a01b031681565b6040516001600160a01b039091168152602001610360565b6104316105b1366004612923565b60146020526000908152604090205460ff1681565b61058b6119be565b6104316105dc366004612923565b600f6020526000908152604090205460ff1681565b6103566105ff366004612923565b600d6020526000908152604090205481565b61043161061f366004612923565b60136020526000908152604090205460ff1681565b6009546104319060ff1681565b601054610356565b61035660085481565b61065a6119ec565b60405161036091906129d0565b60055461043190610100900460ff1681565b610334610687366004612a1c565b611a4e565b610334611d6b565b61035660115481565b6103566106ab366004612923565b60156020526000908152604090205481565b61065a611f86565b61058b6106d3366004612945565b600e602052600090815260409020546001600160a01b031681565b61035660075481565b610334611fe6565b61033461070d366004612923565b612218565b60005461058b906001600160a01b031681565b61072d612253565b60055460ff166107585760405162461bcd60e51b815260040161074f90612a7b565b60405180910390fd5b60055462010000900460ff166107a35760405162461bcd60e51b815260206004820152601060248201526f149859999b19481dd85cc81d985b1a5960821b604482015260640161074f565b336000908152600d6020526040902054806108005760405162461bcd60e51b815260206004820152601860248201527f4e6f20636f6e747269627574696f6e20746f20636c61696d0000000000000000604482015260640161074f565b336000818152600d60205260408082208290559054905163a9059cbb60e01b81526004810192909252602482018390526001600160a01b03169063a9059cbb906044016020604051808303816000875af1158015610862573d6000803e3d6000fd5b505050506040513d601f19601f820116820180604052508101906108869190612aa5565b6108a25760405162461bcd60e51b815260040161074f90612ac7565b6001546040516376e2caa960e01b81526001600160a01b03909116906376e2caa9906108d690309033908690600401612af0565b600060405180830381600087803b1580156108f057600080fd5b505af1158015610904573d6000803e3d6000fd5b5050604080518481524260208201523393507fa674512e33472108e70ebfa57adc683abbdc7cd6d3901f994dc8110a9a7991529250015b60405180910390a25061095b6001600080516020612d2d83398151915255565b565b61096561229f565b61096d6122d1565b60055460ff1661098f5760405162461bcd60e51b815260040161074f90612a7b565b60055462010000900460ff16156109d95760405162461bcd60e51b815260206004820152600e60248201526d149859999b19481a5b9d985b1a5960921b604482015260640161074f565b600554610100900460ff1615610a245760405162461bcd60e51b815260206004820152601060248201526f44726177696e6720636f6d706c65746560801b604482015260640161074f565b600060646028601254610a379190612b2a565b610a419190612b5d565b90506004548110610a8a5760405162461bcd60e51b81526020600482015260136024820152724e6f2073686f727466616c6c2065786973747360681b604482015260640161074f565b600081600454610a9a9190612b71565b90508060126000828254610aae9190612b84565b90915550506000546040516323b872dd60e01b81526001600160a01b03909116906323b872dd90610ae790339030908690600401612af0565b6020604051808303816000875af1158015610b06573d6000803e3d6000fd5b505050506040513d601f19601f82011682018060405250810190610b2a9190612aa5565b610b465760405162461bcd60e51b815260040161074f90612ac7565b60125460408051838152602081019290925242908201527fc03f93f4c11815968141906a9201eb4542e2c4f723c0b7ce41709b6a37761080906060015b60405180910390a15050565b610b97612253565b610b9f6122d1565b60055460ff1615610be55760405162461bcd60e51b815260206004820152601060248201526f149859999b19481a185cc8195b99195960821b604482015260640161074f565b6003544210610c295760405162461bcd60e51b815260206004820152601060248201526f149859999b19481a5cc818db1bdcd95960821b604482015260640161074f565b60008111610c795760405162461bcd60e51b815260206004820152601a60248201527f4d75737420627579206174206c656173742031207469636b6574000000000000604482015260640161074f565b6064811115610cbd5760405162461bcd60e51b815260206004820152601060248201526f546f6f206d616e79207469636b65747360801b604482015260640161074f565b600081600254610ccd9190612b2a565b336000908152600f602052604090205490915060ff16610d4457336000818152600f60205260408120805460ff191660019081179091556010805491820181559091527f1b6847dc741a1b0cd08d278845f9d819d87b734759afb55fe2de5cb82a9ae6720180546001600160a01b03191690911790555b336000908152600c602052604081208054849290610d63908490612b84565b9091555050336000908152600d602052604081208054839290610d87908490612b84565b90915550600090505b82811015610de15733600e600083601154610dab9190612b84565b8152602081019190915260400160002080546001600160a01b0319166001600160a01b0392909216919091179055600101610d90565b508160116000828254610df49190612b84565b925050819055508060126000828254610e0d9190612b84565b90915550506000546040516323b872dd60e01b81526001600160a01b03909116906323b872dd90610e4690339030908690600401612af0565b6020604051808303816000875af1158015610e65573d6000803e3d6000fd5b505050506040513d601f19601f82011682018060405250810190610e899190612aa5565b610ea55760405162461bcd60e51b815260040161074f90612ac7565b6001546040516331064c3160e21b815230600482015233602482015260448101849052606481018390526001600160a01b039091169063c41930c490608401600060405180830381600087803b158015610efe57600080fd5b505af1158015610f12573d6000803e3d6000fd5b50506002546040805186815260208101869052908101919091524260608201523392507f5dc4dcd1f92964d14e2e96d2da87291ad3eb7386b55ba0da1b3457e9ab3ed027915060800160405180910390a250610f7b6001600080516020612d2d83398151915255565b50565b610f8661229f565b610f8e6122d1565b60055460ff1615610fd85760405162461bcd60e51b8152602060048201526014602482015273149859999b1948185b1c9958591e48195b99195960621b604482015260640161074f565b600081116110195760405162461bcd60e51b815260206004820152600e60248201526d125b9d985b1a5908185b5bdd5b9d60921b604482015260640161074f565b600480549082905560408051828152602081018490527fd2993fada3c93a2f7898ab2782987a1415886f0fab3fdd21ec70bd71b88545df9101610b83565b61105f61229f565b60095460ff166110ab5760405162461bcd60e51b8152602060048201526017602482015276139bc818dbdb5b5a5d1b595b9d081cdd589b5a5d1d1959604a1b604482015260640161074f565b610e106007546110bb9190612b84565b42116111015760405162461bcd60e51b815260206004820152601560248201527410dbdb5b5a5d1b595b9d081d1bdbc81c9958d95b9d605a1b604482015260640161074f565b60085442111561114b5760405162461bcd60e51b815260206004820152601560248201527414995d99585b081dda5b991bddc8195e1c1a5c9959605a1b604482015260640161074f565b60065460408051602081018490520160405160208183030381529060405280519060200120146111ae5760405162461bcd60e51b815260206004820152600e60248201526d125b9d985b1a59081cd958dc995d60921b604482015260640161074f565b600554610100900460ff16156112015760405162461bcd60e51b815260206004820152601860248201527744726177696e6720616c726561647920636f6d706c65746560401b604482015260640161074f565b8061120d600143612b71565b60408051602081019390935290409082015244606082015242608082015260a00160408051808303601f190181528282528051602091820120600a819055835242908301527f93e09c699abb823e778c850c2fde9aa19ca5cf6e7b2432dee51b65cf9c7cabfd910160405180910390a1600061128a600a54612302565b9050611295816123c8565b5050565b6112a161229f565b61095b612712565b6112b161229f565b60055460ff166112d35760405162461bcd60e51b815260040161074f90612a7b565b60055462010000900460ff161561131d5760405162461bcd60e51b815260206004820152600e60248201526d149859999b19481a5b9d985b1a5960921b604482015260640161074f565b60095460ff16156113705760405162461bcd60e51b815260206004820152601c60248201527f436f6d6d69746d656e7420616c7265616479207375626d697474656400000000604482015260640161074f565b6006819055426007819055611389906201518090612b84565b60088190556009805460ff1916600117905560065460405190917fbfac1290eb3a909c3f67a93c7c3f54f5fe3cf0221fc0eb3ad7c88bd512ba5725916113d191815260200190565b60405180910390a250565b600080606460286012546113f09190612b2a565b6113fa9190612b5d565b9050600454811061140b578061140f565b6004545b91505090565b61141d61229f565b60095460ff166114695760405162461bcd60e51b8152602060048201526017602482015276139bc818dbdb5b5a5d1b595b9d081cdd589b5a5d1d1959604a1b604482015260640161074f565b60085442116114ba5760405162461bcd60e51b815260206004820152601960248201527f52657665616c2077696e646f77206e6f74206578706972656400000000000000604482015260640161074f565b600554610100900460ff161561150d5760405162461bcd60e51b815260206004820152601860248201527744726177696e6720616c726561647920636f6d706c65746560401b604482015260640161074f565b611518600143612b71565b601154604080519240602084015242908301524460608084019190915230901b6bffffffffffffffffffffffff19166080830152609482015260b40160408051808303601f190181528282528051602091820120600a819055835242908301527f93e09c699abb823e778c850c2fde9aa19ca5cf6e7b2432dee51b65cf9c7cabfd910160405180910390a160006115b0600a54612302565b9050610f7b816123c8565b60095460009081908190819060ff16806115d65760006115e3565b6007546115e39042612b71565b6008546005549297919650945061010090910460ff1692509050565b611607612253565b60055460ff166116295760405162461bcd60e51b815260040161074f90612a7b565b600554610100900460ff166116775760405162461bcd60e51b815260206004820152601460248201527344726177696e67206e6f7420636f6d706c65746560601b604482015260640161074f565b33600090815260156020526040902054806116c85760405162461bcd60e51b81526020600482015260116024820152704e6f207072697a6520746f20636c61696d60781b604482015260640161074f565b336000818152601560205260408082208290559054905163a9059cbb60e01b81526004810192909252602482018390526001600160a01b03169063a9059cbb906044016020604051808303816000875af115801561172a573d6000803e3d6000fd5b505050506040513d601f19601f8201168201806040525081019061174e9190612aa5565b61176a5760405162461bcd60e51b815260040161074f90612ac7565b60015460405163b6c1c69960e01b81526001600160a01b039091169063b6c1c6999061179e90309033908690600401612af0565b600060405180830381600087803b1580156117b857600080fd5b505af11580156117cc573d6000803e3d6000fd5b5050604080518481524260208201523393507f256642a903d86ec186d0ad895b74bdbe7f9e5a72db568f4c4d58c2fa38b39e1c92500161093b565b61180f61229f565b61095b6000612772565b60055460609060009081908190819060ff16158015611839575060035442105b15611874576040518060400160405280600681526020016541637469766560d01b81525094504260035461186d9190612b71565b925061196b565b60055460ff166118ae576040518060400160405280600c81526020016b149958591e481d1bc8115b9960a21b81525094506000925061196b565b60055462010000900460ff1615611900576040518060400160405280601b81526020017f496e76616c6964202d20526566756e647320417661696c61626c65000000000081525094506000925061196b565b600554610100900460ff16611942576040518060400160405280600f81526020016e44726177696e672050656e64696e6760881b81525094506000925061196b565b6040518060400160405280600981526020016810dbdb5c1b195d195960ba1b8152509450600092505b60095460ff1680156119855750600554610100900460ff16155b8015611992575060085442115b90508461199d6113dc565b601054919650945091509091929394565b6119b661229f565b61095b6127e3565b7f9016d09d72d40fdae2fd8ceac6b6234c7706214fd39c1cd1e609a0528c199300546001600160a01b031690565b60606017805480602002602001604051908101604052809291908181526020018280548015611a4457602002820191906000526020600020905b81546001600160a01b03168152600190910190602001808311611a26575b5050505050905090565b7ff0c57e16840df040f15088dc2f81fe391c3923bec73e23a9662efc9c229c6a008054600160401b810460ff16159067ffffffffffffffff16600081158015611a945750825b905060008267ffffffffffffffff166001148015611ab15750303b155b905081158015611abf575080155b15611add5760405163f92ee8a960e01b815260040160405180910390fd5b845467ffffffffffffffff191660011785558315611b0757845460ff60401b1916600160401b1785555b6001600160a01b038b16611b555760405162461bcd60e51b8152602060048201526015602482015274496e76616c696420746f6b656e206164647265737360581b604482015260640161074f565b60008a11611b9c5760405162461bcd60e51b8152602060048201526014602482015273496e76616c6964207469636b657420707269636560601b604482015260640161074f565b60008911611bdf5760405162461bcd60e51b815260206004820152601060248201526f24b73b30b634b210323ab930ba34b7b760811b604482015260640161074f565b60008811611c245760405162461bcd60e51b8152602060048201526012602482015271125b9d985b1a59081c1c9a5e99481c1bdbdb60721b604482015260640161074f565b6001600160a01b038716611c725760405162461bcd60e51b8152602060048201526015602482015274496e76616c6964206e6f74696669636174696f6e7360581b604482015260640161074f565b6001600160a01b038616611cb85760405162461bcd60e51b815260206004820152600d60248201526c24b73b30b634b21037bbb732b960991b604482015260640161074f565b611cc061282c565b611cc861283c565b611cd18661284c565b600080546001600160a01b03808e166001600160a01b03199283161790925560018054928a169290911691909117905560028a9055611d108942612b84565b60035560048890558315611d5e57845460ff60401b19168555604051600181527fc7f505b2f371ae2175ee4913f4499e1f2633a7b5936321eed1cdaeb6115181d29060200160405180910390a15b5050505050505050505050565b611d7361229f565b600354611d839062278d00612b84565b4211611dbd5760405162461bcd60e51b8152602060048201526009602482015268546f6f206561726c7960b81b604482015260640161074f565b600554610100900460ff161580611ddc575060055462010000900460ff165b611e285760405162461bcd60e51b815260206004820152601760248201527f57696e6e6572732063616e207374696c6c20636c61696d000000000000000000604482015260640161074f565b600080546040516370a0823160e01b81523060048201526001600160a01b03909116906370a0823190602401602060405180830381865afa158015611e71573d6000803e3d6000fd5b505050506040513d601f19601f82011682018060405250810190611e959190612b97565b905060008111611ee05760405162461bcd60e51b81526020600482015260166024820152754e6f2062616c616e636520746f20776974686472617760501b604482015260640161074f565b6000546001600160a01b031663a9059cbb611ef96119be565b6040516001600160e01b031960e084901b1681526001600160a01b039091166004820152602481018490526044016020604051808303816000875af1158015611f46573d6000803e3d6000fd5b505050506040513d601f19601f82011682018060405250810190611f6a9190612aa5565b610f7b5760405162461bcd60e51b815260040161074f90612ac7565b60606016805480602002602001604051908101604052809291908181526020018280548015611a44576020028201919060005260206000209081546001600160a01b03168152600190910190602001808311611a26575050505050905090565b611fee61229f565b611ff66122d1565b60035442101561203f5760405162461bcd60e51b8152602060048201526014602482015273526166666c65207374696c6c206f6e676f696e6760601b604482015260640161074f565b60055460ff16156120895760405162461bcd60e51b8152602060048201526014602482015273149859999b1948185b1c9958591e48195b99195960621b604482015260640161074f565b6005805460ff19166001179055601054600a1115612193576005805462ff00001916620100001790556040517f5b7403ba5ef7b1ab602450e7aa477a0f653f2749c6868a45affdf97b9f5fa348906121129060208082526019908201527f496e73756666696369656e74207061727469636970616e747300000000000000604082015260600190565b60405180910390a1600154601054601154604051630e5bd87f60e21b815230600482015260248101929092526044820152600060648201526001600160a01b039091169063396f61fc90608401600060405180830381600087803b15801561217957600080fd5b505af115801561218d573d6000803e3d6000fd5b50505050565b600061219d6113dc565b600154601054601154604051630e5bd87f60e21b815230600482015260248101929092526044820152606481018390529192506001600160a01b03169063396f61fc90608401600060405180830381600087803b1580156121fd57600080fd5b505af1158015612211573d6000803e3d6000fd5b5050505050565b61222061229f565b6001600160a01b03811661224a57604051631e4fbdf760e01b81526000600482015260240161074f565b610f7b81612772565b600080516020612d2d83398151915280546001190161228557604051633ee5aeb560e01b815260040160405180910390fd5b60029055565b6001600080516020612d2d83398151915255565b336122a86119be565b6001600160a01b03161461095b5760405163118cdaa760e01b815233600482015260240161074f565b600080516020612d0d8339815191525460ff161561095b5760405163d93c066560e01b815260040160405180910390fd5b606060006123126005600a612b84565b67ffffffffffffffff81111561232a5761232a612bb0565b604051908082528060200260200182016040528015612353578160200160208202803683370190505b50905060005b6123656005600a612b84565b8110156123c15760408051602081018690529081018290526060016040516020818303038152906040528051906020012060001c9350838282815181106123ae576123ae612bc6565b6020908102919091010152600101612359565b5092915050565b60006123d26113dc565b60408051600a808252610160820190925291925060009190602082016101408036833701905050905060005b835181101561265457600060115485838151811061241e5761241e612bc6565b60200260200101516124309190612bdc565b90505b6000818152600b602052604090205460ff161561246957601154612458826001612b84565b6124629190612bdc565b9050612433565b6000818152600e60209081526040808320546001600160a01b031680845260139092529091205460ff161580156124b957506001600160a01b03811660009081526014602052604090205460ff16155b1561263157601654600a11156125c0576001600160a01b0381166000908152601360205260409020805460ff19166001179055601654606490601890600a811061250557612505612bc6565b01546125119087612b2a565b61251b9190612b5d565b6016548551869190811061253157612531612bc6565b60209081029190910101526016548451859190811061255257612552612bc6565b6020908102919091018101516001600160a01b0383166000818152601590935260408320919091556016805460018101825592527fd833147d7dc355ba459fc788f669e58cfaf9dc25ddcd0702e87d69c7b512428990910180546001600160a01b0319169091179055612631565b60175460051115612631576001600160a01b0381166000818152601460205260408120805460ff191660019081179091556017805491820181559091527fc624b66cc0138b8fabc209247f72d758e1cf3343756d543badbf24212bed8c150180546001600160a01b03191690911790555b506000908152600b60205260409020805460ff19166001908117909155016123fe565b506005805461ff001916610100179055600154604051630d0bc9cf60e41b81526001600160a01b039091169063d0bc9cf09061269c9030906016906017908790600401612c6c565b600060405180830381600087803b1580156126b657600080fd5b505af11580156126ca573d6000803e3d6000fd5b505050507f151e47a37f2be7c932cfd83b3258e06a2e9a227e82270231e12de452d85194b06016601783426040516127059493929190612cc1565b60405180910390a1505050565b61271a61285d565b600080516020612d0d833981519152805460ff191681557f5db9ee0a495bf2e6ff9c91a7834c1ba4fdd244a5e8aa4e537bd38aeae4b073aa335b6040516001600160a01b03909116815260200160405180910390a150565b7f9016d09d72d40fdae2fd8ceac6b6234c7706214fd39c1cd1e609a0528c19930080546001600160a01b031981166001600160a01b03848116918217845560405192169182907f8be0079c531659141344cd1fd0a4f28419497f9722a3daafe3b4186f6b6457e090600090a3505050565b6127eb6122d1565b600080516020612d0d833981519152805460ff191660011781557f62e78cea01bee320cd4e420270b5ea74000d11b0c9f74754ebdbfc544b05a25833612754565b61283461288d565b61095b6128d6565b61284461288d565b61095b6128de565b61285461288d565b610f7b816128ff565b600080516020612d0d8339815191525460ff1661095b57604051638dfc202b60e01b815260040160405180910390fd5b7ff0c57e16840df040f15088dc2f81fe391c3923bec73e23a9662efc9c229c6a0054600160401b900460ff1661095b57604051631afcd79f60e31b815260040160405180910390fd5b61228b61288d565b6128e661288d565b600080516020612d0d833981519152805460ff19169055565b61222061288d565b80356001600160a01b038116811461291e57600080fd5b919050565b60006020828403121561293557600080fd5b61293e82612907565b9392505050565b60006020828403121561295757600080fd5b5035919050565b60a08152600086518060a084015260005b8181101561298c576020818a0181015160c086840101520161296f565b50600060c0828501015260c0601f19601f8301168401019150508560208301528460408301528360608301526129c6608083018415159052565b9695505050505050565b602080825282518282018190526000918401906040840190835b81811015612a115783516001600160a01b03168352602093840193909201916001016129ea565b509095945050505050565b60008060008060008060c08789031215612a3557600080fd5b612a3e87612907565b9550602087013594506040870135935060608701359250612a6160808801612907565b9150612a6f60a08801612907565b90509295509295509295565b60208082526010908201526f149859999b19481b9bdd08195b99195960821b604082015260600190565b600060208284031215612ab757600080fd5b8151801515811461293e57600080fd5b6020808252600f908201526e151c985b9cd9995c8819985a5b1959608a1b604082015260600190565b6001600160a01b039384168152919092166020820152604081019190915260600190565b634e487b7160e01b600052601160045260246000fd5b8082028115828204841417612b4157612b41612b14565b92915050565b634e487b7160e01b600052601260045260246000fd5b600082612b6c57612b6c612b47565b500490565b81810381811115612b4157612b41612b14565b80820180821115612b4157612b41612b14565b600060208284031215612ba957600080fd5b5051919050565b634e487b7160e01b600052604160045260246000fd5b634e487b7160e01b600052603260045260246000fd5b600082612beb57612beb612b47565b500690565b6000815480845260208401935082600052602060002060005b82811015612c305781546001600160a01b0316865260209095019460019182019101612c09565b5093949350505050565b600081518084526020840193506020830160005b82811015612c30578151865260209586019590910190600101612c4e565b6001600160a01b0385168152608060208201819052600090612c9090830186612bf0565b8281036040840152612ca28186612bf0565b90508281036060840152612cb68185612c3a565b979650505050505050565b608081526000612cd46080830187612bf0565b8281036020840152612ce68187612bf0565b90508281036040840152612cfa8186612c3a565b9150508260608301529594505050505056fecd5ed15c6e187e77e9aee88184c21f4f2182ab5827cb3b7e07fbedcd63f033009b779b17422d0df92223018b32b4d1fa46e071723d6817e2486d003becc55f00a2646970667358221220c6b412279d6462fe363717bd07e8c1bd03edc5c374cafb920aa74eeaf4fc4ff664736f6c634300081b0033",
  "linkReferences": {},
  "deployedLinkReferences": {}
}